:020000040000fa
:080000001c02040000000000d6
:020000040000fa
:04000800c003000031
:020000040000fa
:04000c00c00300002d
:020000040000fa
:04001000c003000029
:020000040000fa
:04001400c003000025
:020000040000fa
:04001800c003000021
:020000040000fa
:04001c00c00300001d
:020000040000fa
:04002000c003000019
:020000040000fa
:04002400c003000015
:020000040000fa
:04002800c003000011
:020000040000fa
:04002c00c00300000d
:020000040000fa
:04003000c003000009
:020000040000fa
:0400340020030000a5
:020000040000fa
:04003800c003000001
:020000040000fa
:04003c00c0030000fd
:020000040000fa
:04004000c0030000f9
:020000040000fa
:04004400c0030000f5
:020000040000fa
:04004800160300009b
:020000040000fa
:04004c00c0030000ed
:020000040000fa
:04005000c0030000e9
:020000040000fa
:04005400c0030000e5
:020000040000fa
:04005800c0030000e1
:020000040000fa
:04005c009a03000003
:020000040000fa
:04006000c0030000d9
:020000040000fa
:04006400c0030000d5
:020000040000fa
:04006800c0030000d1
:020000040000fa
:04006c00c0030000cd
:020000040000fa
:04007000c0030000c9
:020000040000fa
:04007400c0030000c5
:020000040000fa
:04007800c0030000c1
:020000040000fa
:04007c00c0030000bd
:020000040000fa
:04008000c0030000b9
:020000040000fa
:04008400c0030000b5
:020000040000fa
:04008800c0030000b1
:020000040000fa
:04008c00c0030000ad
:020000040000fa
:04009000c0030000a9
:020000040000fa
:040094004003000025
:020000040000fa
:04009800c0030000a1
:020000040000fa
:04009c00c00300009d
:020000040000fa
:0400a000c003000099
:020000040000fa
:0400a400c003000095
:020000040000fa
:0400a800c003000091
:020000040000fa
:0400ac00c00300008d
:020000040000fa
:0400b000c003000089
:020000040000fa
:0400b400c003000085
:020000040000fa
:0400b800c003000081
:020000040000fa
:0400bc00c00300007d
:020000040000fa
:0400c000c003000079
:020000040000fa
:0400c400c003000075
:020000040000fa
:0400c800c003000071
:020000040000fa
:0400cc00c00300006d
:020000040000fa
:0400d000c003000069
:020000040000fa
:0400d400c003000065
:020000040000fa
:0400d800c003000061
:020000040000fa
:0400dc00c00300005d
:020000040000fa
:0400e000c003000059
:020000040000fa
:0400e400c003000055
:020000040000fa
:0400e800c003000051
:020000040000fa
:0400ec00c00300004d
:020000040000fa
:0400f000c003000049
:020000040000fa
:0400f400c003000045
:020000040000fa
:0400f800c003000041
:020000040000fa
:0400fc00c00300003d
:020000040000fa
:04010000c003000038
:020000040000fa
:04010400c003000034
:020000040000fa
:04010800c003000030
:020000040000fa
:04010c00c00300002c
:020000040000fa
:04011000c003000028
:020000040000fa
:04011400c003000024
:020000040000fa
:04011800c003000020
:020000040000fa
:04011c00c00300001c
:020000040000fa
:04012000c003000018
:020000040000fa
:04012400c003000014
:020000040000fa
:04012800c003000010
:020000040000fa
:04012c00c00300000c
:020000040000fa
:04013000c003000008
:020000040000fa
:04013400c003000004
:020000040000fa
:04013800c003000000
:020000040000fa
:04013c00c0030000fc
:020000040000fa
:04014000c0030000f8
:020000040000fa
:04014400c0030000f4
:020000040000fa
:04014800c0030000f0
:020000040000fa
:04014c00c0030000ec
:020000040000fa
:04015000c0030000e8
:020000040000fa
:04015400c0030000e4
:020000040000fa
:04015800c0030000e0
:020000040000fa
:04015c00c0030000dc
:020000040000fa
:04016000c0030000d8
:020000040000fa
:04016400c0030000d4
:020000040000fa
:04016800c0030000d0
:020000040000fa
:04016c00c0030000cc
:020000040000fa
:04017000c0030000c8
:020000040000fa
:04017400c0030000c4
:020000040000fa
:04017800c0030000c0
:020000040000fa
:04017c00c0030000bc
:020000040000fa
:04018000c0030000b8
:020000040000fa
:04018400c0030000b4
:020000040000fa
:04018800c0030000b0
:020000040000fa
:04018c00c0030000ac
:020000040000fa
:04019000c0030000a8
:020000040000fa
:04019400c0030000a4
:020000040000fa
:04019800c0030000a0
:020000040000fa
:04019c00c00300009c
:020000040000fa
:0401a000c003000098
:020000040000fa
:0401a400c003000094
:020000040000fa
:0401a800c003000090
:020000040000fa
:0401ac00c00300008c
:020000040000fa
:0401b000c003000088
:020000040000fa
:0401b400c003000084
:020000040000fa
:0401b800c003000080
:020000040000fa
:0401bc00c00300007c
:020000040000fa
:0401c000c003000078
:020000040000fa
:0401c400c003000074
:020000040000fa
:0401c800c003000070
:020000040000fa
:0401cc00c00300006c
:020000040000fa
:0401d000c003000068
:020000040000fa
:0401d400c003000064
:020000040000fa
:0401d800c003000060
:020000040000fa
:0401dc00c00300005c
:020000040000fa
:0401e000c003000058
:020000040000fa
:0401e400c003000054
:020000040000fa
:0401e800c003000050
:020000040000fa
:0401ec00c00300004c
:020000040000fa
:0401f000c003000048
:020000040000fa
:0401f400c003000044
:020000040000fa
:0401f800c003000040
:020000040000fa
:0401fc00c00300003c
:020000040000fa
:04020000c003000037
:020000040000fa
:04020400c003000033
:020000040000fa
:04020800c00300002f
:020000040000fa
:04020c00c00300002b
:020000040000fa
:04021000c003000027
:020000040000fa
:04021400c003000023
:020000040000fa
:04021800c00300001f
:020000040000fa
:04021c00c00300001b
:020000040000fa
:04022000c003000017
:020000040000fa
:04022400c003000013
:020000040000fa
:04022800c00300000f
:020000040000fa
:04022c00c00300000b
:020000040000fa
:04023000c003000007
:020000040000fa
:04023400c003000003
:020000040000fa
:04023800c0030000ff
:020000040000fa
:04023c00c0030000fb
:020000040000fa
:04024000c0030000f7
:020000040000fa
:04024400c0030000f3
:020000040000fa
:04024800c0030000ef
:020000040000fa
:04024c00c0030000eb
:020000040000fa
:04025000c0030000e7
:020000040000fa
:04025400c0030000e3
:020000040000fa
:04025800c0030000df
:020000040000fa
:04025c00c0030000db
:020000040000fa
:04026000c0030000d7
:020000040000fa
:04026400c0030000d3
:020000040000fa
:10040000f03fb1000180b10006003500ee030900a5
:1004100000000000403fb1000180b100fbff3d0043
:100420001000b000203fb00002003500008009003d
:100430000000000000000600cf0721000eff27008b
:100440000e01880000000000000020000000e00015
:100450000200320000012000200288001400070082
:10046000c90007000000e00003003a0060a6210078
:1004700001002000020037000000200001002000e1
:10048000810f7000010032000f0007000000200003
:100490000000e00002003200000002000000000046
:1004a0003c0c0200000000000040da000000fe00ea
:1004b000800020000000e000020032000020200048
:1004c0009001880000000600a102880080047800e6
:1004d0000000eb001f003700e284440054a0b40089
:1004e0009905ba00e284440054a0b4009906ba0009
:1004f000e284440054a0b4000006eb00476fde0025
:10050000fd07b200ae018800636ce10003003a0011
:100510000ad801000000eb000e003700606ce1001b
:1005200008003a00004deb000a05e800020039001f
:100530003420ec000af0a0008b05e900f9ff3e0032
:10054000040037006168e100010032000086eb0022
:100550000b00070019c7ba000e04e0001905ba0025
:1005600003003a000a00e000dbff3a00000006004a
:10057000fe07b200ae0288008a047800f5ff37005b
:100580000cd0a300e20f4d001c003b008902780054
:10059000354dba000a05e800020039003420ec00ad
:1005a0000af0a0008b05e9000f003200254dba00cb
:1005b0000a05e800020039003420ec000af0a0002f
:1005c0008b05e900080032000c00e0000600320054
:1005d00015cdba000a05e800020039003420ec000d
:1005e0000af0a0008b05e9008984e80054a0b4005b
:1005f0000b00e000e2ff3a00000006009902ba009a
:10060000055d78008b05e900f7ff3200c82ade009f
:10061000055d78008b05e900f3ff32000c00e00077
:10062000f1ff320019ddba00eeff37000000fa00da
:100630000108a900000000000080fa000040060048
:100640003600f800809fbe00829fbe00849fbe00df
:10065000869fbe000000fa000068a900e0080700bd
:10066000000000000080fa004f03be004f02be00f1
:100670004f01be004f00be003600f90000400600ea
:100680003600f800809fbe00829fbe00849fbe009f
:10069000869fbe000000fa00128080002380800048
:1006a000100020000100200002004000838048006c
:1006b0001080880021808800328080004380800084
:1006c000100020000100200002004000838048004c
:1006d00030808800418088005280800063808000e4
:1006e000100020000100200002004000838048002c
:1006f0005080880061808800910a07000506070085
:1007000040828000e10f500001003a001705070009
:100710000368a900000000000080fa004f03be003b
:100720004f02be004f01be004f00be003600f90070
:1007300000400600801f78000000fa0001a8a90010
:10074000001880009083880010188000a083880023
:1007500020188000b083880030188000c083880093
:1007600040188000d083880010c0b3001ff0b7008d
:10077000000000000080fa004f00780000400600f2
:100780000040da000000fe00000005001400200018
:10079000ad033700f4ff2f00ab0337000001be00ac
:1007a0003f0007000470a70003f0a1006509b10035
:1007b000160032000d0035006828e1000600350003
:1007c000f0ff2f00f1ff27000300e00013003b00c3
:1007d0000100280000000500000040008180480062
:1007e0008502e900fcff3a0008003700f88f42005c
:1007f00002003c008000eb00000005008100d100f9
:100800000080d3008502e800fcff3a000300e0000e
:1008100002003b0060001000e080180000000600ad
:100820000001be001e0007000470a70003f0a10035
:1008300003f8a30013003a006509b100100032006c
:10084000090035006928e100020035000100280098
:100850000000050000004000818048008502e9009a
:10086000fcff3a0000000600f88f4200050035004a
:100870008100d1000080d3008502e800fcff3a002f
:10088000000006008000eb00000005004f89de003c
:1008900082017800870337006011b80095033700a4
:1008a000c70ade00f107b200f50fb20008003200ff
:1008b000e1cf4200020032000170a00024000500d8
:1008c000810f70000100320004080500440005009b
:1008d000810f700002003a00140005008502e90053
:1008e0000000400081c04800fcff3b000170a000f8
:1008f0002400050007f82700078361000638e1009f
:1009000004003a00f7072000878361008703710025
:1009100001003a0003f0a200889fbe008a9fbe003b
:100920008c9fbe00470ade000480a100c71ade00cb
:100930000580a10007002800078560008785610009
:10094000f70f20000720e1009e0032000728e10099
:100950009c003200010678000400e000b400320080
:10096000f7072000878060000170a0000500e0000c
:10097000c0003200f7072000878161000370a000eb
:10098000050652000f003a000b50e1000b00320048
:100990000308e10002003a000200e1007e0032009c
:1009a0000204500083845800040031000001fd005f
:1009b0008101fd008402fd008a05fd006044b8004d
:1009c000210037000520e10005003d000001fd0089
:1009d0008101fd008402fd008a05fd00050652002c
:1009e0007a60e100050035000170a1004722dd00ba
:1009f000848070008a807000630037006044b80013
:100a0000ef02660007ff2f00070666000500e00002
:100a100006003400f08312008714dd000511de00ab
:100a2000071bdd00060171008519de007060e10022
:100a3000050035000904780082047800030178007d
:100a40008001eb00700656000b50e10003003a00f5
:100a50000200400083804800040037006004140056
:100a6000e0841c0002005800838058000188a30025
:100a7000060032008100d1000080d3008984d300b9
:100a80000884d3000402e800270037000178a3009f
:100a900025003a000100e000030032008186cf000b
:100aa000698656000a0037008c0020000000e00034
:100ab00004003a0009007800880478000004eb0084
:100ac000700252008086cf000d0646000c06e90039
:100ad0007060e100060035008000780009007800b1
:100ae000880478000004eb00700656007002520083
:100af0000c00e0000c0034008c08dd00f003160050
:100b00000703de00868070000c00dd00074bde006e
:100b1000060070008c4cdd000743de008684740004
:100b20000c44dd000c0252006120e1002000350081
:100b3000610160000700280087816400f7ff27003b
:100b400087836400070374000300e000060032009e
:100b500082037300040032000000e800e0804800d7
:100b60000188a3000e003a00f70f20000720e100e3
:100b70004a003d000170a1004722dd0081007200a3
:100b80008a8070000000be004f06be004f05be0008
:100b90004f04be00000006006000b800faff3700f6
:100ba0008100d1000080d3000402e800eeff37008e
:100bb0000401780089017400a10107008a80700097
:100bc000f1ff3700f7010700070278000001fd0080
:100bd0008101fd00f30107008702780085037200a0
:100be0000778a300040032000001fd008101fd0030
:100bf00006020700e4ff3700850362000768a300d0
:100c0000080032000b50e10003003200f0ff2f001b
:100c1000f1ff2700dcff37000001fd008101fd002e
:100c2000d9ff37000468a300d7ff3200faff37006e
:100c3000f8ff2700888360000b003a000000e00006
:100c400009003a00830364008283730002003200cb
:100c50000200be00ccff37000b50e100ceff3a008f
:100c60000200be00c8ff37001400200081006400ad
:100c70003eff3700f8ff27008883610004003a0038
:100c80000200e00002003a008c007800beff37004e
:100c9000150020008301640039ff370001f82700a8
:100ca0000000200081007500b7ff3700889fbe005c
:100cb0008a9fbe008c9fbe001b0020000202be0067
:100cc0000586680006002800060666004709de0063
:100cd000f20fb200820032000243e80080003200ce
:100ce000c729de00f30fb2007d0032000343e800a5
:100cf0007b003200f107b2000170a000f507b200de
:100d00000570a000c708dd004903de008680700082
:100d10004700dd00c72add004923de00868272001d
:100d20004722dd000305510004035000858358006d
:100d30000300310000004000818048000a05e900fe
:100d40008c1f78008a9fbe000400500085805800e8
:100d50000402420085824a00000040008180480071
:100d60000005eb000004be006033b8000406be00be
:100d70000d48e10056003100110009004dccd800ab
:100d80000c01b8000d02b8008481410060824a0065
:100d90008283530003045c0084845c0060055d0072
:100da0000a00e00025003a00800578000d40e100cf
:100db0004900310088007800070078001100090020
:100dc0004d88d8000c01b8000d02b80084814100a4
:100dd00060824a006003110083835b0004045c00ae
:100de000e0845c000900e00021003a004f01be00f1
:100df0000300e0002b003200e301600007067300ef
:100e00008c81710001003200640070004200de003d
:100e10004e5edd000c007000c258de0001e0a00054
:100e200083010700cf017800818071004f06be006a
:100e30004f05be004f04be00000006008c83430037
:100e40000d044c00e0844c0060054d000000e900fa
:100e50000a00e000d4ff32008c8343000d044c00f4
:100e6000e0844c0060054d000000e900ceff370033
:100e70000c0343008d834b0060044c00e0844c0065
:100e80000000e9000900e000d8ff32000c03430035
:100e90008d834b0060044c00e0844c000000e900ae
:100ea000d2ff37004200de004e5edd000c00700015
:100eb000c258de0001e0a000cf0178000300e0008e
:100ec000daff320060001000e0801800d7ff370022
:100ed000f0ff2f00aaff3700f0ff2f00b9ff370007
:100ee0000404be002f010700870678000004fd00ff
:100ef0008104fd002b010700078366000678a3002c
:100f0000030032000960a7000800be002c00370073
:100f10000d78a300020032000800be002800370050
:100f20000778a30026003a0001f0a10009f0a10013
:100f30000668a30003003200f1ff2700f0ff2f0036
:100f4000baff37000d68a300030032000800be009e
:100f50008c807000b5ff37000768a30007003a00d7
:100f60000648a30003003200f1ff2700f0ff2f0026
:100f7000aeff37000d48a300030032006000b80048
:100f80008c807000a9ff37000748a30004003200de
:100f900001f82700000020008c807000a3ff3700bc
:100fa000760107000004fd008104fd0002057800c1
:100fb000720107000802be008a01780059ff37005d
:100fc0000160a000120220000281880097ff370014
:100fd0000100e000120032000500e00010003200c5
:100fe000889fbe008a9fbe008c9fbe000006eb005b
:100ff00001f8a3000300320060001000e080180038
:101000000cf0a00005f8a3000300320060021200fb
:10101000e0821a000cf0a2008005eb0041ff3700cf
:101020006000b80002000500038368000700280084
:1010300007036300470ade000480a100c71ade0030
:101040000580a100f70f20000720e10042003200d8
:101050000728e10040003200889fbe008a9fbe0042
:101060008c1f7800f107b200f307b2000400e00023
:10107000640032000170a0000500e000680032004a
:101080000370a00085054200eb07b1000204b80020
:101090000302b8008484440060854a00020ab80054
:1010a000848444000a854a00030ab8000405450008
:1010b000040033000804d0008984d2000a85d200dd
:1010c0008b05e9006158e1003d0035000210200069
:1010d000090161000308200089816100f7072000f1
:1010e0008783640008867300c84cde00c853dd00a7
:1010f000878474004855de000300e00006003200db
:1011000082037600040032008904e80060054d0087
:101110000a88a3000c003a00f70f20000758e100ee
:1011200044003d000a70a100c75ddd000a8575001e
:101130008a007300090078004f0678004f05be0052
:101140004f04be00000006000a05d1008984d300c8
:101150008b05e800f0ff3700881f78000604780050
:1011600090000700070278000001fd008101fd00ea
:101170008c00070087027800850372000778a300bf
:10118000050032000001fd008101fd009f00070005
:101190004f04780000000600850372000748a30092
:1011a00003003200f0ff2f00f1ff2700f8ff3700a7
:1011b0000000200001f8270088807000f4ff37004d
:1011c000880178004848dd00808171004848de00d1
:1011d000c850dd0001007000c850de000604780031
:1011e0000b0178001600070088807000d2ff3700de
:1011f0000500e00005003200170020003a0007005b
:101200009dff370081037000f9ff3a0086007800e7
:101210004f0678004f05be004f04be0000000500d9
:1012200083037100f9ff3200270020002e00070021
:1012300094ff370001f8270086807000f4ff370024
:101240000100e00026003200610111007810e10089
:1012500023003c006022b8007010e100040035005b
:1012600080027800010078008000eb0070015100de
:101270000200e0000900340070031100062add00be
:10128000822ade008603dd00878272000200de0013
:10129000860bdd00070070008208de00848171008b
:1012a000f4ff27000482620084817100040028009a
:1012b000848262006102600005f0a6000000060062
:1012c00004827100070032000000e800e08048005e
:1012d000000006000002be006000b800efff37000b
:1012e0006000b80000000600889fbe000004eb000c
:1012f0006138e10016003a000100e00008003a0001
:10130000c800de004800dd00880020000100e00089
:1013100003003a00c800de004800dd006804440015
:101320008184cf00e9845400060034008908dd0080
:10133000f08314008703de00878070000900dd0061
:1013400009044400610214004f04be0000000600be
:101350000300e00008003a00c811de004811dd007b
:10136000880020000300e00003003a00c811de00fe
:101370004811dd00680444008384cf00e9845400f0
:10138000060034008919dd00f08314008713de00a5
:10139000878171000911dd0009044400e102140095
:1013a000e9ff37002700200001f0a7001700200008
:1013b000470bde00f60fb200040032000643e800df
:1013c0000a0032004702b300000006000103780063
:1013d000f607b2000603700002003a000703b300ec
:1013e000000006008702b300000006000103780039
:1013f000f607b20006037000020032000770a0007a
:10140000000006000760a000000006000478a300aa
:10141000040032000578a300030032000168a30035
:1014200001003a000200be000160a00000000600ba
:1014300081017000270032008002eb0001f8a30058
:101440000300320060001000e0801800150020004a
:10145000f40720000202420020003400f7032000bd
:1014600087036000060420000003630002082000d8
:10147000000161004700de00c909dd000080710045
:10148000c708de000600e000080032008703710094
:10149000060032001000b0000180b0000188a300f7
:1014a00002003200c108de000402e800f107b200c9
:1014b000f30f20000320e10003003d004722dd0080
:1014c000810072002900370001f827000000eb00be
:1014d000260037006000b800000006006802120015
:1014e0007f20e100020034006000b8001f003700d8
:1014f0006011b8007020e100040035008001780020
:10150000010078008000eb00700252000400e0004f
:1015100009003400f00312000719dd008419de0011
:101520000703dd00868171000400de00070bdd008b
:10153000060070008408de00f7ff27008383630045
:1015400087037100060028000303630007003200d0
:101550000700e00003003a006101600002817300af
:10156000020032001000b0000180b0000500a600ab
:101570000000060001f0a000000006004f0ade0097
:101580004709de00f107b200f20fb2000b00320093
:10159000f207b1000170a000c708dd00c901de003c
:1015a000838070004700dd000400a60000000600f4
:1015b00060001000e080180000000600810f70003d
:1015c00001003a00000006008182cf000500e00023
:1015d00010003e008082cf00ee8242007028e100c1
:1015e0000400390007003e00800078000000eb0096
:1015f0000e003700708312008600de000500dd005b
:101600000a003700708352008600dd000000eb0006
:1016100006003700e28252008508dd007083120068
:101620000603de00868070000500dd007507b0004f
:101630000501ea000400a60000000600600010009a
:10164000e080180000000600889fbe008a9fbe0050
:10165000841f78007c0007004f00780011003300e1
:10166000f0ff2f00838f6c0006003b00040565002f
:101670000a00a7000800370009f0a60010002000ab
:1016800008003700820f5400838f5c00030039008c
:101690001000200001003e000000200009f0a7001b
:1016a0000000ea004f05be004f04be000000e0004d
:1016b00000000600881f7800030478000300e000a3
:1016c00007003d0060001000e08018006001190074
:1016d000e081190002003b0001f02d0003003700fb
:1016e0000400070008f0a70001f0a0004f047800f4
:1016f00000000600889fbe008a9fbe000082700026
:101700000402710004827100260032000004be0051
:101710000200be006011b8006b0920009502200095
:101720000182cf000a0039000541b1000082cf00dc
:10173000070039000541b1000982cf0004003900db
:101740000541b1000882cf00010039000541b10018
:1017500005425200120032000a003b0082817100f3
:10176000610164008100d1000080d3008984d3002e
:101770000884d3008b05e8000442e800f7ff3a0034
:10178000070037000804440089844c00000048002a
:10179000818048008b05e9000442e900f9ff3a0026
:1017a000030007004f05be004f04be000000060006
:1017b00081002000618055000b003d000b002000df
:1017c00061fe2f000100e1001d00340082817100e4
:1017d000610164008904d1000884d3000000e8009e
:1017e000faff3a00710020006100640003007000fd
:1017f000020060000900320061044400e0844c00f3
:101800000988a500050032008b05e8006808e100a2
:1018100002003a008904d1000884d300f20f2000ae
:101820000258e10005003d00c75ddd00f907b20088
:101830008980750008007800000006000bf827007a
:101840008b007800000005000004be0014fc0700b7
:101850000003be000405be000200be0010fc07002d
:08186000844f75000000060032
:020000040000fa
:10186800426f00006e6a00006f7500007200000091
:020000040000fa
:101878000000fa0000002000011f2400908088006a
:10188800a18088000000eb00408288003c06070029
:1018980088060700a002070060030700840207000b
:1018a8001f040700e7050700cd06070090738000b6
:1018b8000000d100614060000004e0000400320034
:1018c8000630ef000830ef0010002000408288004a
:1018d8009073800000407800614060000004e000e0
:1018e8000a003a00328080004380800000a62e0063
:1018f80001002000800f5100818f59000b00360035
:10190800408280000000e000080032001200200041
:101918006000b8001e0407000001eb006000b8007a
:101928001b0407000000eb00408288004082800012
:101938000000e000010032000700070071002000ed
:1019480040c32800bf06070000a02500212620006c
:10195800a9fa0700d5ff37000200fa00881f7800af
:10196800e0818000f181800018c0b30002002000ef
:10197800831f240083fb07000000e00001003500fe
:101988000044eb000880fb00610060004600dd00b9
:10199800217480000160a10001007000207488009b
:1019a800008280001182800018c0b300020020006d
:1019b800831f240073fb07000000e00001003500ce
:1019c8000044eb000880fb00610060004500dd007a
:1019d800217480000150a10001007000207488006b
:1019e800208280003182800018c0b30002002000ed
:1019f800831f240063fb07000000e000010035009e
:101a08000044eb000880fb00610060004400dd003a
:101a1800217480000140a10001007000207488003a
:101a2800c0818000d181800018c0b300020020006e
:101a3800831f240053fb07000000e000010035006d
:101a48000044eb000880fb00610060004b00dd00f3
:101a58002174800001b0a10001007000207488008a
:101a6800a0818000b181800018c0b300020020006e
:101a7800831f240043fb07000000e000010035003d
:101a88000044eb000880fb00610060004a00dd00b4
:101a9800a173800001a0a10001007000a07388005c
:101aa80090808000a180800018c0b3000200200050
:101ab800031f240033fb07000000e0000100320090
:101ac8000044eb00084f78001e4078006140600039
:101ad8008080fb00e1806000227080000200a1008d
:101ae80082807000217088008080fb00e1806000a7
:101af800c908dd00227080000290a1008280700079
:101b0800217088008080fb00cf08dd00a27480006f
:101b180002f0a10082807000a17488008080fb0020
:101b2800e1806000ca08dd002270800002a0a100e8
:101b380082807000217088000080fb0061006000d6
:101b48004300dd00a17380000130a1000100700096
:101b5800a0738800000000004f0478000080fa009d
:101b6800000006000000fa000ed0bf000080fb0055
:101b7800e40f50002f003200e40f500007003c0033
:101b8800e10f500017003200e20f50001f00320032
:101b98000000e0000800320050003700e80f500055
:101ba80038003200ea0f500040003200e60f5000c3
:101bb8002a003200490037000230ef000430ef00fd
:101bc800120020006000b800710307000001eb005c
:101bd8006000b8006e03070010c0b3000ef0b70035
:101be800410037001280800023808000803e200062
:101bf80001002000800f5100818f59003900360004
:101c080020c0b3000ef0b700360037009080800087
:101c1800a1808000120020005d03070090808000f2
:101c2800a18080000001eb00590307003100070084
:101c38002d0037001200200000002000811a240027
:101c4800530307000001eb006066260061102400c2
:101c58004f03070027000700230037001200200069
:101c68006066260061102400490307000001eb00ac
:101c780000002000811a2400450307001d0007000a
:101c880019003700120020000000200081192400ec
:101c98003f0307000001eb000000200081192c0021
:101ca8003b030700130007000f0037001200200055
:101cb8000000200081192c00350307000001eb000b
:101cc800000020008119240031030700b0c0b300d0
:101cd8000ef0b70007000700030037000e70ef0092
:101ce8000100370000000000000000000080fa003a
:101cf800000006000000fa004a0007001000070074
:101d08000ff0b700f10021009140780010d0bf001b
:101d180080cf5000050032000ed0bf0010f0b70091
:101d28000fd0bf000ef0b700020037000fd0bf0081
:101d380010f0b700000000000080fa000000060064
:101d48000200fa00004f78001e80fb006100b90015
:101d5800f201200003002000820f5000838f5800fa
:101d68002d003e00000601001f003700200037004c
:101d78001f0037001e003700210037002000370001
:101d88001f0037001e0037001b0037001c003700fb
:101d98001b0037001a0037001d0037001c003700f1
:101da8001b0037001a0037001300370018003700ef
:101db80015003700140037001300370012003700f1
:101dc80011003700100037000b00370010003700f3
:101dd8000f0037000e0037000d0037000c003700e9
:101de8000b0037000a00370020c0b3000b00370093
:101df80040c0b3000900370060c0b30007003700d7
:101e080080c0b30005003700a0c0b300030037004e
:101e1800a0c0b300010037000040eb000080fa00ca
:101e2800000006000000fa00881f7800e0818000aa
:101e3800f181800062012000230007000080fb0080
:101e48004400dd0000447800008280001182800098
:101e5800f20120001c0007000080fb004300dd00a9
:101e680000407800004474002082800031828000a5
:101e780042022000140007000080fb004200dd0041
:101e88000040780000447400c0818000d181800047
:101e9800f20120000c0007000080fb000000400059
:101ea8000040780000447400a0818000b181800067
:101eb8006201200004000700004074004f0478000d
:101ec8000080fa00000006000600fa00008fbe003d
:101ed800220798002e0090006100b90069fa0700f7
:101ee8000001be001e0078009e00900025fa070041
:101ef8000000e00002003d0010c0b3000100370000
:101f08000040eb000080fa00000006000200fa0022
:101f180092040700e14f5000e2003a0093040700e2
:101f28008a040700000f78001e007800100078006f
:101f38008000eb0056fa07003233230033052400f3
:101f480037fc070000017800010078008202780061
:101f580000027800020020000358240005007800e1
:101f6800840078000000be004efb070000017800e6
:101f780001007800820178000001780003007800f1
:101f8800820078000001be000000200081202400ab
:101f980044fb070000017800010078008202780005
:101fa8000002780002002000030a240005007800df
:101fb800840078000000be004cfa07008001780019
:101fc8000101780003007800820078000000be005c
:101fd800e0818800f18188001e80e8001000780008
:101fe8008000eb002afa070032332300330524006f
:101ff8000bfc0700000178000100780082027800dd
:102008000002780002002000035824000500780030
:10201800840078000000be0022fb07000001780061
:102028000100780082017800000178000300780040
:10203800820078000001be000000200081202400fa
:1020480018fb070000017800010078008202780080
:102058000002780002002000030a2400050078002e
:10206800840078000000be0020fa07008001780094
:102078000101780003007800820078000000be00ab
:102088000082880011828800410020001e804000e4
:10209800100078008000eb00fdf9070032332300c0
:1020a80033052400defb07000001780001007800fa
:1020b8008202780000027800020020000358240001
:1020c80005007800840078000000be00f5fa0700db
:1020d8000001780001007800820178000001780092
:1020e80003007800820078000001be000000200094
:1020f80081202400ebfa0700000178000100780035
:10210800820278000002780002002000030a2400fe
:1021180005007800840078000000be00f3f907008d
:1021280080017800010178000300780082007800bf
:102138000000be00208288003182880061002000f3
:102148001e804000100078008000eb00d0f90700e6
:102158003233230033052400b1fb07000001780067
:102168000100780082027800000278000200200056
:102178000358240005007800840078000000be00a1
:10218800c8fa070000017800010078008201780091
:102198000001780003007800820078000001be008a
:1021a8000000200081202400befa0700000178000a
:1021b8000100780082027800000278000200200006
:1021c800030a240005007800840078000000be009f
:1021d800c6f9070080017800010178000300780043
:1021e800820078000000be00c0818800d18188008c
:1021f800810020001e804000100078008000eb0065
:10220800a3f90700323323003305240084fb0700b9
:10221800000178000100780082027800000278004e
:10222800020020000358240005007800840078008c
:102238000000be009bfa070000017800010078004a
:10224800820178000001780003007800820078009d
:102258000001be00000020008120240091fa070040
:1022680000017800010078008202780000027800fe
:1022780002002000030a240005007800840078008a
:102288000000be0099f9070080017800010178007c
:1022980003007800820078000000be00a08188005a
:1022a800b1818800000000000080fa0000000600ec
:1022b8000000fa0013e1a90011e1a9001061a800cb
:1022c8001021a900800880000040a1000050a10052
:1022d800800888000a21ef000621ef002026200050
:1022e8007008880000a0250060088800204280004f
:1022f8000000a0000010a1000020a10020428800da
:102308000108a9002108a80011e1a80000000000a8
:102318000080fa00000006000000fa0005e1a900ac
:102328000421a9000068a9002068a80005e1a80008
:1023380000002000a137240003000700000000006f
:102348000080fa00000006000400fa00008fbe00ba
:10235800200880000040a1000050a100200888004b
:102368001e0178009e019000001c2e0041c624002a
:102378004cfa07000001780001007800820278001a
:102388000002780002f02f00f3772400050078009f
:10239800840078000000be00fcf807000000e000a0
:1023a8008d003400200880000040a0000050a100eb
:1023b800200888001e0178009e019000001c2e0055
:1023c80041c6240037fa07000001780001007800b0
:1023d8008202780000027800020020000310240026
:1023e80005007800840078000000be002dfa070080
:1023f800000178000100780082027800000278006d
:1024080002f02f00f377240005007800840078009c
:102418000000be00ddf807000000e00055003400b1
:10242800200880000040a1000050a000200888007b
:102438001e0178009e019000001c2e0041c6240059
:1024480018fa07000001780001007800820278007d
:10245800000278000200200003282400050078000c
:10246800840078000000be000efa07000001780022
:1024780001007800820278000002780002f02f0044
:10248800f377240005007800840078000000be007f
:10249800bef807000000e0001d003400200880009e
:1024a8000040a0000050a000200888001e0178000d
:1024b8009e019000001c2e0041c62400f9f9070077
:1024c800000178000100780082027800000278009c
:1024d80002002000033824000500780084007800fa
:1024e8000000be00eff90700000178000100780045
:1024f80082017800000178000300780082007800eb
:102508000000be00a3f8070010088800400037004c
:102518001e0178009e019000001c2e0041c6240078
:10252800e0f90700000178000100780082027800d5
:10253800000278000200200003282400050078002b
:10254800840078000000be00d6f90700000178007a
:10255800010078008201780000017800030078000b
:10256800820078000000be008af807001008880082
:10257800270037001e0178009e019000001c2e00e5
:1025880041c62400c7f9070000017800010078005f
:102598008202780000027800020020000310240064
:1025a80005007800840078000000be00bdf907002f
:1025b80000017800010078008201780000017800ad
:1025c80003007800820078000000be0071f8070060
:1025d800100888000e0037001e0178009e01900048
:1025e800001c2e0041c62400aef907000001780047
:1025f800010078008201780000017800030078006b
:10260800820078000000be0062f807001008880009
:10261800000000000080fa00000006000000fa0038
:102628001fe1a9001e21a9000368a9002368a800ca
:102638001fe1a80000002000a147240003000700b4
:10264800000000000080fa00000006000400fa0004
:10265800008fbe00f00880000040a1000050a100db
:10266800f00888001e0178009e019000001c2e00d2
:1026780041c624008bf907000001780001007800aa
:10268800820278000002780002f02f00f37724001d
:1026980005007800840078000000be003bf80700c1
:1026a8000000e0008d003400f00880000040a00029
:1026b8000050a100f00888001e0178009e019000db
:1026c800001c2e0041c6240076f90700000178009e
:1026d80001007800820278000002780002002000e1
:1026e8000310240005007800840078000000be0074
:1026f8006cf9070000017800010078008202780078
:102708000002780002f02f00f3772400050078001b
:10271800840078000000be001cf807000000e000fc
:1027280055003400f00880000040a1000050a000cf
:10273800f00888001e0178009e019000001c2e0001
:1027480041c6240057f9070000017800010078000d
:10275800820278000002780002002000032824008a
:1027680005007800840078000000be004df90700dd
:1027780000017800010078008202780000027800e9
:1027880002f02f00f3772400050078008400780019
:102798000000be00fdf707000000e0001d00340047
:1027a800f00880000040a0000050a000f008880059
:1027b8001e0178009e019000001c2e0041c62400d6
:1027c80038f90700000178000100780082027800db
:1027d8000002780002002000033824000500780079
:1027e800840078000000be002ef907000001780080
:1027f8000100780082017800000178000300780069
:10280800820078000000be00e2f70700d0088800c8
:10281800400037001e0178009e019000001c2e0029
:1028280041c624001ff90700000178000100780064
:1028380082027800000278000200200003282400a9
:1028480005007800840078000000be0015f9070034
:10285800000178000100780082017800000178000a
:1028680003007800820078000000be00c9f7070066
:10287800d0088800270037001e0178009e019000cc
:10288800001c2e0041c6240006f90700000178004c
:10289800010078008202780000027800020020001f
:1028a8000310240005007800840078000000be00b2
:1028b800fcf8070000017800010078008201780028
:1028c8000001780003007800820078000000be0054
:1028d800b0f70700d00888000e0037001e01780006
:1028e8009e019000001c2e0041c62400edf8070050
:1028f800000178000100780082017800000178006a
:1029080003007800820078000000be00a1f70700ed
:10291800d0088800000000000080fa0000000600cf
:102928000000fa0002ccbf000000a1000010a100c6
:102938000020a10002ecb70000962000206088006b
:102948001061800000a0a00000b0a0001061880005
:1029580023cca80023eca8003000200020618800c8
:102968001062800000a0a00000b0a00010628800e3
:1029780043cca80043eca800300020002062880067
:1029880001eca800000000000080fa00000006002a
:102998000600fa00008fbe00220798002e00900063
:1029a8000000e000050032001e0178009e01900042
:1029b8006281880073818800040037001e01780056
:1029c8009e01900022818800338188000000000069
:1029d8000080fa00000006000000fa00889fbe0090
:1029e80084818000958180006081800071818000f1
:1029f8000001be000400be0062f707000000e0000e
:102a080014003d0068818000798180008481800005
:102a180095818000b0808000c18080000001be00e8
:102a28000400be00baf70700000178000100780032
:102a380082027800000278000801be0005007800d4
:102a4800840078000000be000d0107008081880026
:102a58009181880084818000958180006081800058
:102a6800718180000001be000400be0047f7070026
:102a78000000e00014003400688180007981800043
:102a88008481800095818000b0808000c1808000b2
:102a98000001be000400be0094f7070000017800a2
:102aa8000100780082027800000278000801be0068
:102ab80005007800840078000000be00d9000700f7
:102ac80080818800918188008081800091818000c8
:102ad8006011b8002df707000000e0001e00350067
:102ae800808180009181800002002000031c240066
:102af8004bf9070000017800010078008202780095
:102b080000027800d0808000e18080000001be00d3
:102b180005007800840078000000be007cf70700fc
:102b28000001780001007800820178000001780037
:102b380003007800820078000000be0036f7070026
:102b480070628800d0808000e180800032f7070042
:102b5800306288001e003700d0808000e18080004d
:102b68002df70700706288008081800091818000c5
:102b780001f0a20002002000031c240028f907002d
:102b880000017800010078008202780000027800d5
:102b9800d0808000e18080000001be000500780040
:102ba800840078000000be0059f707000001780093
:102bb80001007800820178000001780003007800a5
:102bc800820078000000be0013f70700306288001a
:102bd80044818000558180002081800031818000ff
:102be8000001be000400be00e6f607000000e00099
:102bf80014003d00288180003981800044818000d4
:102c080055818000b0808000c18080000001be0036
:102c18000400be003ef707000001780001007800bc
:102c280082027800000278000801be0005007800e2
:102c3800840078000000be009100070040818800f1
:102c48005181880044818000558180002081800066
:102c5800318180000001be000400be00cbf60700f1
:102c68000000e000140034002881800039818000d1
:102c78004481800055818000b0808000c180800040
:102c88000001be000400be0018f70700000178002c
:102c98000100780082027800000278000801be0076
:102ca80005007800840078000000be005d00070081
:102cb80040818800518188004081800051818000d6
:102cc8006011b800b1f607000000e0001e003400f3
:102cd800408180005181800002002000031c2400f4
:102ce800cff8070000017800010078008202780020
:102cf80000027800d0808000e18080000001be00e2
:102d080005007800840078000000be0000f7070086
:102d18000001780001007800820178000001780045
:102d280003007800820078000000be00baf60700b1
:102d380030618800d0808000e1808000b6f607000e
:102d4800706188001e003700d0808000e18080001c
:102d5800b1f6070030618800408180005181800011
:102d680001f0a20002002000031c2400acf80700b8
:102d780000017800010078008202780000027800e3
:102d8800d0808000e18080000001be00050078004e
:102d9800840078000000be00ddf60700000178001e
:102da80001007800820178000001780003007800b3
:102db800820078000000be0097f607007061880066
:102dc800000000004f04be000080fa00000006006a
:102dd8000400fa00008fbe006011b8001e007800e1
:102de8009e00900069f607000000e000030035002f
:102df8001e0078009e009000030037001e00780037
:102e08009e00900001f0a200800178000101780086
:102e180003007800820078000000be000080fa00fd
:102e2800000006000800fa00008fbe002207980084
:102e3800330798002e019000be0190001e00780014
:102e48009e00900051f607000000e00003003400e7
:102e58009e0078001e00900002003700ae0090002f
:102e68003e0090008101780000017800030078009e
:102e7800820078000000be000080fa000000060012
:102e88000800fa00008fbe00220798003307980058
:102e98002e019000be0190001e0078009e00900058
:102ea80038f607000000e00003003d009e007800af
:102eb8001e00900002003700ae0090003e00900017
:102ec8008101780000017800030078008200780012
:102ed8000000be000080fa00000006000c00fa00a6
:102ee800008fbe0022079800330798004407980017
:102ef800550798004e019000de0190001e007800f2
:102f08009e00900021f607000000e0000400340055
:102f18004e019000de019000028fbe000a003700cb
:102f28002e019000be0190001e0078009e009000c7
:102f380014f607000000e00003003d002e01900099
:102f4800be019000028fbe009e0078001e00900017
:102f58008101780000017800030078008200780081
:102f68000000be000080fa00000006000400fa001d
:102f7800008fbe00b2fd2000930424001e007800dc
:102f88009e00900047f707000001780001007800d4
:102f980082027800000278000200200043332400f7
:102fa80005007800840078000000be001cf80700c7
:102fb8000001780001007800820078008101780023
:102fc8000001780003007800820078000000be004d
:102fd8000080fa00000006000400fa00008fbe001e
:102fe800b2fd2000930424001e0078009e0090008b
:102ff8000bf80700000178000100780082027800d1
:103008000002780002002000433324000500780005
:10301800840078000000be0022f707000001780055
:1030280001007800820078008101780000017800b2
:1030380003007800820078000000be000080fa00db
:10304800000006000000fa0021e3a9002143a800bf
:10305800001980000080a1000090a10000198800dc
:103068002043a900001980000050a0000060a000c3
:103078000070a000001988001019800000d0a1007d
:1030880000e0a10000f0a100101988002343a80067
:10309800101980000080a1000090a100101988007c
:1030a8001119800030f82f00008060000040a00057
:1030b800101988002203a9002223a90025e3a900ea
:1030c800f0c0b30024e3b70021198000f00f2e00f0
:1030d8008080600000f02000010070002019880046
:1030e8003303a9001e0ea8001f0ea8001f2ea8005b
:1030f8001f4ea8001f6ea8003003a8003103a800c7
:103108003123a8003143a8003163a8004119800089
:1031180000fe2f00008060004019880028e3a90005
:1031280001a8a90021a8a80021e3a8000000000028
:103138000080fa00000006000000fa002023a80022
:10314800000000000080fa00000006000000fa00fd
:10315800200721000080fa00000006000000fa00a5
:103168001fd0bf000080fa00000006000000fa002f
:103178001f70ef00000000000080fa000000060049
:103188000000fa00817420009140780000ccb30060
:1031980000c060007041b30048e7b700313a8000d2
:1031a80000e02f0080806000800520000100700092
:1031b800303a8800203a80000060a1000070a10029
:1031c800203a8800213a800000fe2f00008060002d
:1031d8000000a000203a880012002000800720008c
:1031e800a1092000337420008049780081497800c3
:1031f80082497800103a8000000178000200a0009f
:1032080060042000710520002374200080497800a4
:10321800814978008249780000000000103a800057
:103228004c00de0067406000e14f5000fbff3a00b1
:103238005927a800c03a80000000a0000010a10093
:103248000020a100c03a88005ac7bf000000a000b3
:103258000010a0000020a0005ae7b700c03a800084
:103268000050a1000060a0000070a000c03a8800d3
:1032780059a7a80059e7a80000000000c03a80003c
:103288004e00de0061406000e14f5000fbff3a0055
:1032980000000000103a80004500de006140600038
:1032a800e14f5000fbff3a00000000000080fa00e8
:1032b800000006000000fa000e2eef001e2eef00a0
:1032c8003e2eef002e2eef004e2eef006e2eef005a
:1032d80080cea90091eea90080aea900000ea90039
:1032e800808ea900012ea900816ea900014ea900b7
:1032f800714ea900706ea90001368000f007200009
:10330800010070000036880001368000f00f2800a8
:103318008080600000e0270001007000003688000f
:10332800e135800000f82f008080600090072000c1
:1033380001007000e0358800e1358000f00f2800ba
:10334800808060000080270001007000e035880060
:10335800190007002136800000f82f0080806000e7
:10336800e00420000100700020368800413480000d
:1033780000fc2f00008060000000a000403488009e
:1033880003000700000000000080fa0000000600ab
:103398000000fa0021742000620420007305200058
:1033a800824878008348780042c7a80000000000df
:1033b8000080fa00000006000000fa0021742000d6
:1033c8006204200073052000824878008348780052
:1033d80042c7a900000000000080fa0000000600b3
:1033e8000000fa002002a900001180000010a100ce
:1033f8000020a1000011880020a2a9002062a800d6
:10340800100820004011880023a2a90023e2a90087
:103418000188a9002188a900101180000060a1007e
:103428000070a100101188000168a9002168a90096
:1034380021e2a8002342a800000000000080fa0052
:10344800000006000600fa001007980021079800ff
:103458000040eb00004f78000040eb00004f780080
:103468001100370000000000101180004900de0044
:10347800614060000004e000fbff3a009e009000fd
:103488000e80e8000108e800100178001207980093
:10349800114078000080fb00201188001e40780051
:1034a8000040e800004f78001e80fb00ae0090004e
:1034b800808f5000ebff3c00000000000080fa0005
:0434c80000000600fa
:020000040000fa
:1034cc00001000000e000000800000002210000020
:1034dc005000000080000000721000000a00000084
:1034ec00800000001e1000000200000080000000a0
:1034fc000e100000080000008000000016100000f4
:10350c0008000000820000000000a0004000000045
:10351c004842000020100000020000008000000063
:04352c00000000009b
:020000040000fa
:0200000401f009
:04000800cfffff0027
:020000040000fa
:0200000401f009
:04000c00f9ffff00f9
:020000040000fa
:0200000401f009
:040010005bffff0093
:020000040000fa
:0200000401f009
:040014007fffff006b
:020000040000fa
:0200000401f009
:04001800cfffff0017
:020000040000fa
:0200000401f009
:04001c00deffff0004
:020000040000fa
:0200000401f009
:04002000cfffff000f
:00000001FF
