:020000040000fa
:080000000002040000000000f2
:020000040000fa
:0400080018040000d8
:020000040000fa
:04000c0018040000d4
:020000040000fa
:0400100018040000d0
:020000040000fa
:0400140018040000cc
:020000040000fa
:0400180018040000c8
:020000040000fa
:04001c0018040000c4
:020000040000fa
:0400200018040000c0
:020000040000fa
:0400240018040000bc
:020000040000fa
:0400280018040000b8
:020000040000fa
:04002c0018040000b4
:020000040000fa
:0400300018040000b0
:020000040000fa
:0400340004030000c1
:020000040000fa
:0400380018040000a8
:020000040000fa
:04003c0018040000a4
:020000040000fa
:0400400018040000a0
:020000040000fa
:04004400180400009c
:020000040000fa
:04004800fa020000b8
:020000040000fa
:04004c001804000094
:020000040000fa
:040050001804000090
:020000040000fa
:04005400d0030000d5
:020000040000fa
:04005800a4030000fd
:020000040000fa
:04005c007e0300001f
:020000040000fa
:040060001804000080
:020000040000fa
:04006400180400007c
:020000040000fa
:040068001804000078
:020000040000fa
:04006c001804000074
:020000040000fa
:040070001804000070
:020000040000fa
:04007400180400006c
:020000040000fa
:040078001804000068
:020000040000fa
:04007c001804000064
:020000040000fa
:040080001804000060
:020000040000fa
:04008400180400005c
:020000040000fa
:040088001804000058
:020000040000fa
:04008c001804000054
:020000040000fa
:040090001804000050
:020000040000fa
:040094002403000041
:020000040000fa
:040098001804000048
:020000040000fa
:04009c001804000044
:020000040000fa
:0400a0001804000040
:020000040000fa
:0400a400180400003c
:020000040000fa
:0400a8001804000038
:020000040000fa
:0400ac001804000034
:020000040000fa
:0400b0001804000030
:020000040000fa
:0400b400180400002c
:020000040000fa
:0400b8001804000028
:020000040000fa
:0400bc001804000024
:020000040000fa
:0400c0001804000020
:020000040000fa
:0400c400180400001c
:020000040000fa
:0400c8001804000018
:020000040000fa
:0400cc001804000014
:020000040000fa
:0400d0001804000010
:020000040000fa
:0400d400180400000c
:020000040000fa
:0400d8001804000008
:020000040000fa
:0400dc001804000004
:020000040000fa
:0400e0001804000000
:020000040000fa
:0400e40018040000fc
:020000040000fa
:0400e80018040000f8
:020000040000fa
:0400ec0018040000f4
:020000040000fa
:0400f00018040000f0
:020000040000fa
:0400f40018040000ec
:020000040000fa
:0400f80018040000e8
:020000040000fa
:0400fc0018040000e4
:020000040000fa
:0401000018040000df
:020000040000fa
:0401040018040000db
:020000040000fa
:0401080018040000d7
:020000040000fa
:04010c0018040000d3
:020000040000fa
:0401100018040000cf
:020000040000fa
:0401140018040000cb
:020000040000fa
:0401180018040000c7
:020000040000fa
:04011c0018040000c3
:020000040000fa
:0401200018040000bf
:020000040000fa
:0401240018040000bb
:020000040000fa
:0401280018040000b7
:020000040000fa
:04012c0018040000b3
:020000040000fa
:0401300018040000af
:020000040000fa
:0401340018040000ab
:020000040000fa
:0401380018040000a7
:020000040000fa
:04013c0018040000a3
:020000040000fa
:04014000180400009f
:020000040000fa
:04014400180400009b
:020000040000fa
:040148001804000097
:020000040000fa
:04014c001804000093
:020000040000fa
:04015000180400008f
:020000040000fa
:04015400180400008b
:020000040000fa
:040158001804000087
:020000040000fa
:04015c001804000083
:020000040000fa
:04016000180400007f
:020000040000fa
:04016400180400007b
:020000040000fa
:040168001804000077
:020000040000fa
:04016c001804000073
:020000040000fa
:04017000180400006f
:020000040000fa
:04017400180400006b
:020000040000fa
:040178001804000067
:020000040000fa
:04017c001804000063
:020000040000fa
:04018000180400005f
:020000040000fa
:04018400180400005b
:020000040000fa
:040188001804000057
:020000040000fa
:04018c001804000053
:020000040000fa
:04019000180400004f
:020000040000fa
:04019400180400004b
:020000040000fa
:040198001804000047
:020000040000fa
:04019c001804000043
:020000040000fa
:0401a000180400003f
:020000040000fa
:0401a400180400003b
:020000040000fa
:0401a8001804000037
:020000040000fa
:0401ac001804000033
:020000040000fa
:0401b000180400002f
:020000040000fa
:0401b400180400002b
:020000040000fa
:0401b8001804000027
:020000040000fa
:0401bc001804000023
:020000040000fa
:0401c000180400001f
:020000040000fa
:0401c400180400001b
:020000040000fa
:0401c8001804000017
:020000040000fa
:0401cc001804000013
:020000040000fa
:0401d000180400000f
:020000040000fa
:0401d400180400000b
:020000040000fa
:0401d8001804000007
:020000040000fa
:0401dc001804000003
:020000040000fa
:0401e00018040000ff
:020000040000fa
:0401e40018040000fb
:020000040000fa
:0401e80018040000f7
:020000040000fa
:0401ec0018040000f3
:020000040000fa
:0401f00018040000ef
:020000040000fa
:0401f40018040000eb
:020000040000fa
:0401f80018040000e7
:020000040000fa
:0401fc0018040000e3
:020000040000fa
:0402000018040000de
:020000040000fa
:0402040018040000da
:020000040000fa
:0402080018040000d6
:020000040000fa
:04020c0018040000d2
:020000040000fa
:0402100018040000ce
:020000040000fa
:0402140018040000ca
:020000040000fa
:0402180018040000c6
:020000040000fa
:04021c0018040000c2
:020000040000fa
:0402200018040000be
:020000040000fa
:0402240018040000ba
:020000040000fa
:0402280018040000b6
:020000040000fa
:04022c0018040000b2
:020000040000fa
:0402300018040000ae
:020000040000fa
:0402340018040000aa
:020000040000fa
:0402380018040000a6
:020000040000fa
:04023c0018040000a2
:020000040000fa
:04024000180400009e
:020000040000fa
:04024400180400009a
:020000040000fa
:040248001804000096
:020000040000fa
:04024c001804000092
:020000040000fa
:04025000180400008e
:020000040000fa
:04025400180400008a
:020000040000fa
:040258001804000086
:020000040000fa
:04025c001804000082
:020000040000fa
:04026000180400007e
:020000040000fa
:04026400180400007a
:020000040000fa
:10040000cf2221000eff27000e018800000000000f
:10041000000020000000e000020032000001200087
:100420002002880014000700030107000000e0001c
:1004300003003a00006122000100200002003700a2
:100440000000200001002000810f70000100320038
:100450000f000700000020000000e0000200320052
:100460000000020000000000581002000000000020
:100470000040da000000fe00200020000000e00044
:1004800002003200100020009001880000000600e9
:10049000a1028800800478000000eb001f003700f4
:1004a000e284440054a0b4009905ba00e2844400f8
:1004b00054a0b4009906ba00e284440054a0b400e9
:1004c0000006eb00476fde00fd07b200ae018800ba
:1004d000636ce10003003a000ad801000000eb0061
:1004e0000e003700606ce10008003a00004deb00a0
:1004f0000a05e800020039003420ec000af0a000f0
:100500008b05e900f9ff3e00040037006168e10057
:10051000010032000086eb000b00070019c7ba008b
:100520000e04e0001905ba0003003a000a00e000da
:10053000dbff3a0000000600fe07b200ae028800b2
:100540008a047800f5ff37000cd0a300e20f4d00bd
:100550001c003b0089027800354dba000a05e8000e
:10056000020039003420ec000af0a0008b05e900fd
:100570000f003200254dba000a05e80002003900dc
:100580003420ec000af0a0008b05e90008003200de
:100590000c00e0000600320015cdba000a05e800a4
:1005a000020039003420ec000af0a0008b05e900bd
:1005b0008984e80054a0b4000b00e000e2ff3a0098
:1005c000000006009902ba00055d78008b05e9007d
:1005d000f7ff3200c82ade00055d78008b05e900d0
:1005e000f3ff32000c00e000f1ff320019ddba0029
:1005f000eeff37000000fa000108a900000000002b
:100600000080fa00004006003600f800809fbe001f
:10061000829fbe00849fbe00869fbe000000fa003d
:100620000068a900180e0700000000000080fa0012
:100630004f03be004f02be004f01be004f00be0080
:100640003600f900004006003600f800809fbe002a
:10065000829fbe00849fbe00869fbe000000fa00fd
:10066000d2808000e3808000100020000100200084
:100670000200400083804800d0808800e18088002c
:10068000f280800003818000100020000100200023
:100690000200400083804800f080880001818800cb
:1006a00012818000238180001000200001002000c2
:1006b000020040008380480010818800218188006a
:1006c0003010070032080700c08f8000e10f500093
:1006d00001003a003f0707000368a900000000007e
:1006e0000080fa004f03be004f02be004f01be0063
:1006f0004f00be003600f90000400600801f780061
:100700000000fa0001a8a9000018800010918800dc
:1007100010188000209188002018800030918800f7
:100720003018800040918800401880005091880067
:1007300010c0b3004df0b700000000000080fa00c8
:100740004f007800004006003600f800809fbe0091
:10075000829fbe00849fbe00869fbe000000fa00fc
:100760000188a9001182800000828000808f5000e3
:10077000020032009d0f0700010037004470ef00b7
:10078000000000000080fa004f03be004f02be00d0
:100790004f01be004f00be003600f90000400600c9
:1007a0003600f800809fbe00829fbe00849fbe007e
:1007b000869fbe000000fa000168a90010118000a9
:1007c0004200de0061406000e14f500001003a004d
:1007d0002242a900101180000000d1006140600099
:1007e000e14f500005003a002222a9000300370023
:1007f00030118000004078008e100700101180003a
:100800000040780061406000e14f5000f8ff320086
:10081000000000000080fa004f03be004f02be003f
:100820004f01be004f00be003600f9000040060038
:100830000040da000000fe00000005001400200067
:10084000ad033700f4ff2f00ab0337000001be00fb
:100850003f0007000470a70003f0a1006509b10084
:10086000160032000d0035006828e1000600350052
:10087000f0ff2f00f1ff27000300e00013003b0012
:1008800001002800000005000000400081804800b1
:100890008502e900fcff3a0008003700f88f4200ab
:1008a00002003c008000eb00000005008100d10048
:1008b0000080d3008502e800fcff3a000300e0005e
:1008c00002003b0060001000e080180000000600fd
:1008d0000001be001e0007000470a70003f0a10085
:1008e00003f8a30013003a006509b10010003200bc
:1008f000090035006928e1000200350001002800e8
:100900000000050000004000818048008502e900e9
:10091000fcff3a0000000600f88f42000500350099
:100920008100d1000080d3008502e800fcff3a007e
:10093000000006008000eb00000005004f89de008b
:1009400082017800870337006011b80095033700f3
:10095000c70ade00f107b200f50fb200080032004e
:10096000e1cf4200020032000170a0002400050027
:10097000810f7000010032000408050044000500ea
:10098000810f700002003a00140005008502e900a2
:100990000000400081c04800fcff3b000170a00047
:1009a0002400050007f82700078361000638e100ee
:1009b00004003a00f7072000878361008703710075
:1009c00001003a0003f0a200889fbe008a9fbe008b
:1009d0008c9fbe00470ade000480a100c71ade001b
:1009e0000580a10007002800078560008785610059
:1009f000f70f20000720e1009e0032000728e100e9
:100a00009c003200010678000400e000b4003200cf
:100a1000f7072000878060000170a0000500e0005b
:100a2000c0003200f7072000878161000370a0003a
:100a3000050652000f003a000b50e1000b00320097
:100a40000308e10002003a000200e1007e003200eb
:100a50000204500083845800040031000001fd00ae
:100a60008101fd008402fd008a05fd006044b8009c
:100a7000210037000520e10005003d000001fd00d8
:100a80008101fd008402fd008a05fd00050652007b
:100a90007a60e100050035000170a1004722dd0009
:100aa000848070008a807000630037006044b80062
:100ab000ef02660007ff2f00070666000500e00052
:100ac00006003400f08312008714dd000511de00fb
:100ad000071bdd00060171008519de007060e10072
:100ae00005003500090478008204780003017800cd
:100af0008001eb00700656000b50e10003003a0045
:100b000002004000838048000400370060041400a5
:100b1000e0841c0002005800838058000188a30074
:100b2000060032008100d1000080d3008984d30008
:100b30000884d3000402e800270037000178a300ee
:100b400025003a000100e000030032008186cf005a
:100b5000698656000a0037008c0020000000e00083
:100b600004003a0009007800880478000004eb00d3
:100b7000700252008086cf000d0646000c06e90088
:100b80007060e10006003500800078000900780000
:100b9000880478000004eb007006560070025200d2
:100ba0000c00e0000c0034008c08dd00f00316009f
:100bb0000703de00868070000c00dd00074bde00be
:100bc000060070008c4cdd000743de008684740054
:100bd0000c44dd000c0252006120e10020003500d1
:100be000610160000700280087816400f7ff27008b
:100bf00087836400070374000300e00006003200ee
:100c000082037300040032000000e800e080480026
:100c10000188a3000e003a00f70f20000720e10032
:100c20004a003d000170a1004722dd0081007200f2
:100c30008a8070000000be004f06be004f05be0057
:100c40004f04be00000006006000b800faff370045
:100c50008100d1000080d3000402e800eeff3700dd
:100c60000401780089017400a10107008a807000e6
:100c7000f1ff3700f7010700070278000001fd00cf
:100c80008101fd00f30107008702780085037200ef
:100c90000778a300040032000001fd008101fd007f
:100ca00006020700e4ff3700850362000768a3001f
:100cb000080032000b50e10003003200f0ff2f006b
:100cc000f1ff2700dcff37000001fd008101fd007e
:100cd000d9ff37000468a300d7ff3200faff3700be
:100ce000f8ff2700888360000b003a000000e00056
:100cf00009003a008303640082837300020032001b
:100d00000200be00ccff37000b50e100ceff3a00de
:100d10000200be00c8ff37001400200081006400fc
:100d20003eff3700f8ff27008883610004003a0087
:100d30000200e00002003a008c007800beff37009d
:100d4000150020008301640039ff370001f82700f7
:100d50000000200081007500b7ff3700889fbe00ab
:100d60008a9fbe008c9fbe001b0020000202be00b6
:100d70000586680006002800060666004709de00b2
:100d8000f20fb200820032000243e800800032001d
:100d9000c729de00f30fb2007d0032000343e800f4
:100da0007b003200f107b2000170a000f507b2002d
:100db0000570a000c708dd004903de0086807000d2
:100dc0004700dd00c72add004923de00868272006d
:100dd0004722dd00030551000403500085835800bd
:100de0000300310000004000818048000a05e9004e
:100df0008c1f78008a9fbe00040050008580580038
:100e00000402420085824a000000400081804800c0
:100e10000005eb000004be006033b8000406be000d
:100e20000d48e10056003100110009004dccd800fa
:100e30000c01b8000d02b8008481410060824a00b4
:100e40008283530003045c0084845c0060055d00c1
:100e50000a00e00025003a00800578000d40e1001e
:100e6000490031008800780007007800110009006f
:100e70004d88d8000c01b8000d02b80084814100f3
:100e800060824a006003110083835b0004045c00fd
:100e9000e0845c000900e00021003a004f01be0040
:100ea0000300e0002b003200e3016000070673003e
:100eb0008c81710001003200640070004200de008d
:100ec0004e5edd000c007000c258de0001e0a000a4
:100ed00083010700cf017800818071004f06be00ba
:100ee0004f05be004f04be00000006008c83430087
:100ef0000d044c00e0844c0060054d000000e9004a
:100f00000a00e000d4ff32008c8343000d044c0043
:100f1000e0844c0060054d000000e900ceff370082
:100f20000c0343008d834b0060044c00e0844c00b4
:100f30000000e9000900e000d8ff32000c03430084
:100f40008d834b0060044c00e0844c000000e900fd
:100f5000d2ff37004200de004e5edd000c00700064
:100f6000c258de0001e0a000cf0178000300e000dd
:100f7000daff320060001000e0801800d7ff370071
:100f8000f0ff2f00aaff3700f0ff2f00b9ff370056
:100f90000404be002f010700870678000004fd004e
:100fa0008104fd002b010700078366000678a3007b
:100fb000030032000960a7000800be002c003700c3
:100fc0000d78a300020032000800be0028003700a0
:100fd0000778a30026003a0001f0a10009f0a10063
:100fe0000668a30003003200f1ff2700f0ff2f0086
:100ff000baff37000d68a300030032000800be00ee
:101000008c807000b5ff37000768a30007003a0026
:101010000648a30003003200f1ff2700f0ff2f0075
:10102000aeff37000d48a300030032006000b80097
:101030008c807000a9ff37000748a300040032002d
:1010400001f82700000020008c807000a3ff37000b
:10105000760107000004fd008104fd000205780010
:10106000720107000802be008a01780059ff3700ac
:101070000160a000120220008282880097ff3700e2
:101080000100e000120032000500e0001000320014
:10109000889fbe008a9fbe008c9fbe000006eb00aa
:1010a00001f8a3000300320060001000e080180087
:1010b0000cf0a00005f8a30003003200600212004b
:1010c000e0821a000cf0a2008005eb0041ff37001f
:1010d0006000b800020005000383680007002800d4
:1010e00007036300470ade000480a100c71ade0080
:1010f0000580a100f70f20000720e1004200320028
:101100000728e10040003200889fbe008a9fbe0091
:101110008c1f7800f107b200f307b2000400e00072
:10112000640032000170a0000500e0006800320099
:101130000370a00085054200eb07b1000204b8006f
:101140000302b8008484440060854a00020ab800a3
:10115000848444000a854a00030ab8000405450057
:10116000040033000804d0008984d2000a85d2002c
:101170008b05e9006158e1003d00350002102000b8
:10118000090161000308200089816100f707200040
:101190008783640008867300c84cde00c853dd00f6
:1011a000878474004855de000300e000060032002a
:1011b00082037600040032008904e80060054d00d7
:1011c0000a88a3000c003a00f70f20000758e1003e
:1011d00044003d000a70a100c75ddd000a8575006e
:1011e0008a007300090078004f0678004f05be00a2
:1011f0004f04be00000006000a05d1008984d30018
:101200008b05e800f0ff3700881f7800060478009f
:1012100090000700070278000001fd008101fd0039
:101220008c00070087027800850372000778a3000e
:10123000050032000001fd008101fd009f00070054
:101240004f04780000000600850372000748a300e1
:1012500003003200f0ff2f00f1ff2700f8ff3700f6
:101260000000200001f8270088807000f4ff37009c
:10127000880178004848dd00808171004848de0020
:10128000c850dd0001007000c850de000604780080
:101290000b0178001600070088807000d2ff37002d
:1012a0000500e00005003200170020003a000700aa
:1012b0009dff370081037000f9ff3a008600780037
:1012c0004f0678004f05be004f04be000000050029
:1012d00083037100f9ff3200270020002e00070071
:1012e00094ff370001f8270086807000f4ff370074
:1012f0000100e00026003200610111007810e100d9
:1013000023003c006022b8007010e10004003500aa
:1013100080027800010078008000eb00700151002d
:101320000200e0000900340070031100062add000d
:10133000822ade008603dd00878272000200de0062
:10134000860bdd00070070008208de0084817100da
:10135000f4ff2700048262008481710004002800e9
:10136000848262006102600005f0a60000000600b1
:1013700004827100070032000000e800e0804800ad
:10138000000006000002be006000b800efff37005a
:101390006000b80000000600889fbe000004eb005b
:1013a0006138e10016003a000100e00008003a0050
:1013b000c800de004800dd00880020000100e000d9
:1013c00003003a00c800de004800dd006804440065
:1013d0008184cf00e9845400060034008908dd00d0
:1013e000f08314008703de00878070000900dd00b1
:1013f00009044400610214004f04be00000006000e
:101400000300e00008003a00c811de004811dd00ca
:10141000880020000300e00003003a00c811de004d
:101420004811dd00680444008384cf00e98454003f
:10143000060034008919dd00f08314008713de00f4
:10144000878171000911dd0009044400e1021400e4
:10145000e9ff37002700200001f0a7001700200057
:10146000470bde00f60fb200040032000643e8002e
:101470000a0032004702b3000000060001037800b2
:10148000f607b2000603700002003a000703b3003b
:10149000000006008702b300000006000103780088
:1014a000f607b20006037000020032000770a000c9
:1014b000000006000760a000000006000478a300fa
:1014c000040032000578a300030032000168a30085
:1014d00001003a000200be000160a000000006000a
:1014e00081017000270032008002eb0001f8a300a8
:1014f0000300320060001000e0801800150020009a
:10150000f40720000202420020003400f70320000c
:101510008703600006042000000363000208200027
:10152000000161004700de00c909dd000080710094
:10153000c708de000600e0000800320087037100e3
:10154000060032001000b0000180b0000188a30046
:1015500002003200c108de000402e800f107b20018
:10156000f30f20000320e10003003d004722dd00cf
:10157000810072002900370001f827000000eb000d
:10158000260037006000b800000006006802120064
:101590007f20e100020034006000b8001f00370027
:1015a0006011b8007020e10004003500800178006f
:1015b000010078008000eb00700252000400e0009f
:1015c00009003400f00312000719dd008419de0061
:1015d0000703dd00868171000400de00070bdd00db
:1015e000060070008408de00f7ff27008383630095
:1015f0008703710006002800030363000700320020
:101600000700e00003003a006101600002817300fe
:10161000020032001000b0000180b0000500a600fa
:101620000000060001f0a000000006004f0ade00e6
:101630004709de00f107b200f20fb2000b003200e2
:10164000f207b1000170a000c708dd00c901de008b
:10165000838070004700dd000400a6000000060043
:1016600060001000e080180000000600810f70008c
:1016700001003a00000006008182cf000500e00072
:1016800010003e008082cf00ee8242007028e10010
:101690000400390007003e00800078000000eb00e5
:1016a0000e003700708312008600de000500dd00aa
:1016b0000a003700708352008600dd000000eb0056
:1016c00006003700e28252008508dd0070831200b8
:1016d0000603de00868070000500dd007507b0009f
:1016e0000501ea000400a6000000060060001000ea
:1016f000e080180000000600889fbe008a9fbe00a0
:10170000841f78007c0007004f0078001100330030
:10171000f0ff2f00838f6c0006003b00040565007e
:101720000a00a7000800370009f0a60010002000fa
:1017300008003700820f5400838f5c0003003900db
:101740001000200001003e000000200009f0a7006a
:101750000000ea004f05be004f04be000000e0009c
:1017600000000600881f7800030478000300e000f2
:1017700007003d0060001000e080180060011900c3
:10178000e081190002003b0001f02d00030037004a
:101790000400070008f0a70001f0a0004f04780043
:1017a00000000600889fbe008a9fbe000082700075
:1017b0000402710004827100260032000004be00a1
:1017c0000200be006011b8006b09200095022000e5
:1017d0000182cf000a0039000541b1000082cf002c
:1017e000070039000541b1000982cf00040039002b
:1017f0000541b1000882cf00010039000541b10068
:1018000005425200120032000a003b008281710042
:10181000610164008100d1000080d3008984d3007d
:101820000884d3008b05e8000442e800f7ff3a0083
:10183000070037000804440089844c000000480079
:10184000818048008b05e9000442e900f9ff3a0075
:10185000030007004f05be004f04be000000060055
:1018600081002000618055000b003d000b0020002e
:1018700061fe2f000100e1001d0034008281710033
:10188000610164008904d1000884d3000000e800ed
:10189000faff3a007100200061006400030070004c
:1018a000020060000900320061044400e0844c0042
:1018b0000988a500050032008b05e8006808e100f2
:1018c00002003a008904d1000884d300f20f2000fe
:1018d0000258e10005003d00c75ddd00f907b200d8
:1018e0008980750008007800000006000bf82700ca
:1018f0008b007800000005000004be0014fc070007
:101900000003be000405be000200be0010fc07007c
:10191000844f7500000006000400fa000001be00bc
:1019200003f0a100a4fd200095f42300840f5100d2
:10193000858f59000e003e00f4ff2f00f59723001d
:10194000840f5100858f59003a003e0002002000ac
:1019500003b827001cfc0700e0bf9f00f1bf9f00f9
:101960000000200001f823000080fa0000000600bb
:101970004f0ade0005002000163d2500b7072400b1
:10198000860f5100878f59001b003e0036be2c0089
:1019900067012400860f5100878f59000a00360026
:1019a000b2fd2000930424000400e0000400320093
:1019b00005fc0700c100070001f0a200eaff3700a4
:1019c000f8fb0700fbff37000400e00005003200d1
:1019d000b2fd200093fc2300fbfb0700420107003f
:1019e000e1ff37000001be00b0fd200091fc2300a4
:1019f000ecfb0700f9ff3700561d2300270e2400db
:101a0000860f5100878f590014003e00f6dd2e002e
:101a1000f70a2400860f5100878f5900090036000d
:101a2000b2fd2000930c24000400e000030032000b
:101a3000e5fb0700a1000700cbff3700d9fb07003b
:101a4000fcff37000400e0000100320001f0a200ba
:101a500042be2c0063092400e5ff3700f4ff2f008d
:101a6000f5f72700840f5100858f590004003600d8
:101a70000001be000200be00cafb0700baff37002b
:101a8000c2ff2f000f014100c0000700630160008a
:101a90006fb89700ffb89700e10f510005003200c2
:101aa000e20f5100c3ff32000200e000cbff3a001a
:101ab000e0ff370001f0a200c8ff37000400fa0081
:101ac000889fbe000004be008900780001f0a100dc
:101ad000a4fd200095f42300840f5000858f58004a
:101ae0001e003e00f4ff2f00f5972300840f5000e6
:101af000858f580016003e006000b80003f82700ec
:101b000089806100e00f5000e08f58000b003a0020
:101b100002002000033820000800be006efd070010
:101b20000001be00c2bf9f00d3bf9f000800be00df
:101b30004f04be000080fa000000060002002000f2
:101b400003b827000800be009ffb0700f4ff370022
:101b50000800be00e4000700180037004f49de000f
:101b600003002000143d2500b5072400840f500019
:101b7000858f58001d003e0034be2c0065012400f6
:101b8000840f5000858f58000e003e000800be00f4
:101b90000200e000b2fd200093fc230005003200ab
:101ba00089fb0700450007000004be0009f0a20001
:101bb000deff37007bfb0700400007000004be008b
:101bc000daff37000800be000200e000b2fd20008e
:101bd00093042400030032007bfb070001f0a20005
:101be000dcff37006ffb0700fcff3700541d2300ac
:101bf000250e2400840f5000858f580017003e00ea
:101c0000f4dd2e00f50a2400840f5000858f580063
:101c100009003e000800be000200e00042be2c00a9
:101c2000630924000200320067fb0700e2ff37006f
:101c30005cfb0700dbff37000800be000200e0008d
:101c4000b2fd2000930c2400020032005efb07006e
:101c5000c0ff370053fb0700beff3700f2ff2f0025
:101c6000f3f72700820f5000838f580005003600dd
:101c70000801be000800be004afb07000004be00c9
:101c8000aaff370082ff2f000f0141000800be00ad
:101c90003e000700630160004fb89700dfb897006f
:101ca000e10f5100c4ff3200e20f5100cbff3200c0
:101cb0000200e000bbff3a00a6ff37000400fa0074
:101cc000889fbe008a9fbe008c9fbe000001be00a0
:101cd00001fd07000004be000001be00fefc07007d
:101ce0000005be000200200003f02b000800be002b
:101cf000f9fc07000200200003f8230032fb070074
:101d00000006be00f2a92a00a3d223000a00be00ea
:101d1000f1fc07000001be000c00be002afb07001a
:101d20000002be0072a12900c37c23000800be008f
:101d300084bf9f0095bf9f00e7fc0700f24320008f
:101d400063ab230017fb07000006be000a01be00bc
:101d50000800be00e0fc07000001be000c00be0051
:101d6000ddfc07000001be000fba97009fba970084
:101d70000400be0014fb07004f06be004f05be0066
:101d80004f04be000080fa00000006000400fa00c4
:101d9000889fbe008a9fbe008c9fbe000006780010
:101da000810478008206780001f0a100a2fd2000e5
:101db00093dc2400820f5000838f580023003e00e4
:101dc00032982f0023f2230089007800c2fc07001c
:101dd0000200200003b42400fbfa070002002000e8
:101de00003b42400effa07000005be0097fa0700cd
:101df00000047800a2fd200093fc23000a00be002e
:101e0000b5fc07000001be000c00780089007800d6
:101e1000e4fa07000002be00325a2800832823009b
:101e20000a00be0084bf9f0095bf9f00aafc070068
:101e30000001be000fba97009fba97000400be00d1
:101e4000d8fa0700808ebe000b003700f2ff2f008b
:101e5000f3f72700820f5000838f58000c003600e4
:101e6000000178008901780089007800cdfa070028
:101e7000808ebe000004eb00080078004f06be0014
:101e80004f05be004f04be000080fa0000000600af
:101e9000890078004c0007000005be0032982f0032
:101ea00023f223008cfc07000200200003f0230033
:101eb000c5fa0700550007000004780029fe070056
:101ec00032982f0023f22300a4fb07000001be007c
:101ed0000a00be00b3fa07006000b800a006980030
:101ee000b1069800d7ff37000400fa00889fbe00b3
:101ef0008a9fbe008c9fbe000006be000001be008f
:101f000075fc07000004be000001be000c00be000e
:101f100071fc07000005be000801be000800be00fd
:101f20006dfc07000a01be006bfc07000002be004a
:101f3000c2c32600636323000800be0084bf9f0065
:101f400095bf9f0064fc0700f27c200003952300ee
:101f500094fa07000001be000fba97009fba9700dd
:101f60000400be005cfc07000002be00428828009e
:101f700083c023000800be0084bf9f0095bf9f0060
:101f800055fc0700b2aa2a00a3e2230085fa070045
:101f90000a01be0050fc07000c01be008afa0700cf
:101fa0000001be000fba97009fba97000400be0060
:101fb00085fa07004f06be004f05be004f04be0065
:101fc0000080fa00000006000400fa006011b8006a
:101fd000e2bf9f00f3bf9f006fbb9700ffbb97005e
:101fe0000002be00f0ff2f00f1ff2f00f2ff2f00d4
:101ff000f3ff27000000620081806200020163009d
:10200000838163000080fa00000006000003be0028
:102010004ffa07006011b8000470a70007f0a10094
:102020006509b1001b003200120035008602200055
:102030000628e10008003500f3ff2700f2ff2f001b
:102040006110b9000700e00018003b000300280001
:102050006000b800020005000000400081804800d8
:1020600002014900838149008502e900faff3a0034
:1020700008003700f88f420002003c008000eb00af
:10208000000005008100d1000080d3008502e80037
:10209000fcff3a000700e00004003b006000100075
:1020a000e080180060011900e081190000000600be
:020000040000fa
:1020b0000200fa0000002000011f2400a081880017
:1020c000b18188000000eb00c08f8800bf090700c5
:1020d0000b0a0700b1020700710307009502070011
:1020e0003b0707006a090700940a07009073800005
:1020f0000000d100614060000004e00004003200f4
:102100001e30ef002030ef0010002000c08f88004c
:102110009073800000407800614060000004e0009f
:102120000a003a00f28080000381800000a62e00a1
:1021300001002000800f5100818f59000b003600f4
:10214000c08f80000000e000080032001200200074
:102150006000b8003a0707000001eb006000b8001b
:10216000370707000000eb00c08f8800c08f800099
:102170000000e0000100320013000700201d2100d4
:10218000904078004fd0bf0080cf50000a0032004e
:10219000201d2100104078004ff0b7004fd0bf0045
:1021a0006b05070004003700320a0700004f780073
:1021b0001e40780083040700470a07000000e00083
:1021c000f9ff3c00c9ff37000200fa00881f7800c1
:1021d000608f8000718f800018c0b3000200200063
:1021e000831f240095f907000000e000010035007e
:1021f0000044eb000880fb00610060004600dd0049
:10220000217480000160a10001007000207488002a
:10221000808f8000918f800018c0b30002002000e2
:10222000831f240085f907000000e000010035004d
:102230000044eb000880fb00610060004500dd0009
:10224000217480000150a1000100700020748800fa
:10225000a08f8000b18f800018c0b3000200200062
:10226000831f240075f907000000e000010035001d
:102270000044eb000880fb00610060004400dd00ca
:10228000217480000140a1000100700020748800ca
:10229000408f8000518f800018c0b30002002000e2
:1022a000831f240065f907000000e00001003500ed
:1022b0000044eb000880fb00610060004b00dd0083
:1022c0002174800001b0a10001007000207488001a
:1022d000208f8000318f800018c0b30002002000e2
:1022e000831f240055f907000000e00001003500bd
:1022f0000044eb000880fb00610060004a00dd0044
:10230000a173800001a0a10001007000a0738800eb
:10231000a0818000b181800018c0b30002002000bd
:10232000031f240045f907000000e000010032000f
:102330000044eb00084f78001e40780061406000c8
:102340008080fb00e1806000227080000200a1001c
:1023500082807000217088008080fb00e180600036
:10236000c908dd00227080000290a1008280700008
:10237000217088008080fb00cf08dd00a2748000ff
:1023800002f0a10082807000a17488008080fb00b0
:10239000e1806000ca08dd002270800002a0a10078
:1023a00082807000217088000080fb006100600066
:1023b0004300dd00a17380000130a1000100700026
:1023c000a0738800000000004f0478000080fa002d
:1023d000000006000000fa004ad0bf000004e00040
:1023e0005f00320030d0bf000080fb00e40f5000df
:1023f0002f003200e40f500007003c00e10f5000b6
:1024000017003200e20f50001f0032000000e00011
:102410000800320050003700e80f5000380032004a
:10242000ea0f500040003200e60f50002a00320050
:10243000490037001a30ef001c30ef001200200076
:102440006000b8007e0607000001eb006000b800e5
:102450007b06070010c0b30030f0b7004300370020
:10246000d2808000e3808000803e200001002000b8
:10247000800f5100818f59003b00360020c0b3000f
:1024800030f0b70038003700a0818000b1818000b3
:10249000120020006a060700a0818000b181800040
:1024a0000001eb0066060700330007002f0037002d
:1024b0001200200000002000811a2400600607009e
:1024c0000001eb0060662600611024005c06070036
:1024d0002900070025003700120020006066260052
:1024e00061102400560607000001eb0000002000e8
:1024f000811a2400520607001f0007001b00370046
:102500001200200000002000811924004c06070062
:102510000001eb000000200081192c004806070094
:1025200015000700110037001200200000002000f5
:1025300081192c00420607000001eb00000020007a
:10254000811924003e060700b0c0b30030f0b70088
:1025500009000700050037003070ef000300370066
:102560000000000001003700000000000000000033
:102570000080fa00000006000000fa004a00070090
:102580001000070031f0b7001103210091407800de
:1025900032d0bf0080cf50000500320030d0bf00e5
:1025a00032f0b70031d0bf0030f0b7000200370082
:1025b00031d0bf0032f0b700000000000080fa0008
:1025c000000006000200fa00004f78001e80fb00a9
:1025d0006100b900f201200003002000820f5000ca
:1025e000838f58002d003e00000601001f003700b9
:1025f000200037001f0037001e0037002100370081
:10260000200037001f0037001e0037001b00370076
:102610001c0037001b0037001a0037001d00370070
:102620001c0037001b0037001a003700130037006a
:10263000180037001500370014003700130037006a
:102640001200370011003700100037000b00370070
:10265000100037000f0037000e0037000d00370064
:102660000c0037000b0037000a00370020c0b30011
:102670000b00370040c0b3000900370060c0b30052
:102680000700370080c0b30005003700a0c0b300ca
:1026900003003700a0c0b300010037000040eb008a
:1026a0000080fa00000006000000fa00881f780091
:1026b000608f8000718f800062012000230007007e
:1026c0000080fb004400dd0000447800808f800023
:1026d000918f8000f20120001c0007000080fb00a9
:1026e0004300dd000040780000447400a08f8000ab
:1026f000b18f800042022000140007000080fb0020
:102700004200dd000040780000447400408f8000eb
:10271000518f8000f20120000c0007000080fb00b8
:10272000000040000040780000447400208f8000ca
:10273000318f800062012000040007000040740017
:102740004f0478000080fa00000006000600fa003e
:10275000008fbe00220798002e0090006100b90093
:1027600076f807000001be001e0078009e00900071
:1027700032f807000000e00002003d0010c0b30086
:10278000010037000040eb000080fa000000060066
:102790000200fa0004080700e14f5000e2003a008e
:1027a00005080700fc070700000f78001e007800ee
:1027b000100078008000eb0063f80700323323003c
:1027c0003305240044fa0700000178000100780076
:1027d00082027800000278000200200003582400e2
:1027e00005007800840078000000be005bf9070057
:1027f0000001780001007800820178000001780073
:1028000003007800820078000001be000000200074
:102810008120240051f907000001780001007800b0
:10282000820278000002780002002000030a2400df
:1028300005007800840078000000be0059f8070009
:1028400080017800010178000300780082007800a0
:102850000000be00608f8800718f88001e80e80035
:10286000100078008000eb0037f8070032332300b7
:102870003305240018fa07000001780001007800f1
:102880008202780000027800020020000358240031
:1028900005007800840078000000be002ff90700d2
:1028a00000017800010078008201780000017800c2
:1028b00003007800820078000001be0000002000c4
:1028c0008120240025f9070000017800010078002c
:1028d000820278000002780002002000030a24002f
:1028e00005007800840078000000be002df8070085
:1028f00080017800010178000300780082007800f0
:102900000000be00808f8800918f88004100200069
:102910001e804000100078008000eb000af80700dd
:102920003233230033052400ebf90700000178005f
:102930000100780082027800000278000200200086
:102940000358240005007800840078000000be00d1
:1029500002f9070000017800010078008201780088
:102960000001780003007800820078000001be00ba
:102970000000200081202400f8f807000001780002
:102980000100780082027800000278000200200036
:10299000030a240005007800840078000000be00cf
:1029a00000f807008001780001017800030078003a
:1029b000820078000000be00a08f8800b18f8800e0
:1029c000610020001e804000100078008000eb00b5
:1029d000ddf707003233230033052400bef907007a
:1029e000000178000100780082027800000278007f
:1029f00002002000035824000500780084007800bd
:102a00000000be00d5f80700000178000100780042
:102a100082017800000178000300780082007800cd
:102a20000001be000000200081202400cbf8070038
:102a3000000178000100780082027800000278002e
:102a400002002000030a24000500780084007800ba
:102a50000000be00d3f70700800178000101780074
:102a600003007800820078000000be00408f8800dc
:102a7000518f8800810020001e80400010007800e7
:102a80008000eb00b0f70700323323003305240049
:102a900091f90700000178000100780082027800b7
:102aa000000278000200200003582400050078008e
:102ab000840078000000be00a8f80700000178003c
:102ac000010078008201780000017800030078009e
:102ad000820078000001be00000020008120240058
:102ae0009ef807000001780001007800820278005b
:102af0000002780002002000030a2400050078008c
:102b0000840078000000be00a6f70700800178006e
:102b10000101780003007800820078000000be0008
:102b2000208f8800318f8800000000000080fa00ac
:102b3000000006000000fa0013e1a90011e1a9005d
:102b40001061a8001021a900800880000040a100a9
:102b50000050a100800888000a21ef000621ef0044
:102b6000202620007008880000a02500600888004a
:102b7000204280000000a0000010a1000020a10061
:102b8000204288000108a9002108a80011e1a8003e
:102b9000000000000080fa00000006000000fa00bb
:102ba00005e1a9000421a9000068a9002068a80087
:102bb00005e1a80000002000a13724000300070061
:102bc000000000000080fa00000006000400fa0087
:102bd000008fbe00200880000040a1000050a1002e
:102be000200888001e0178009e019000001c2e0025
:102bf00041c6240059f80700000178000100780060
:102c0000820278000002780002f02f00f37724009f
:102c100005007800840078000000be0009f7070076
:102c20000000e0008d003400200880000040a0007b
:102c30000050a100200888001e0178009e0190002d
:102c4000001c2e0041c6240044f807000001780053
:102c50000100780082027800000278000200200063
:102c60000310240005007800840078000000be00f6
:102c70003af807000001780001007800820278002d
:102c80000002780002f02f00f3772400050078009e
:102c9000840078000000be00eaf607000000e000b3
:102ca00055003400200880000040a1000050a00022
:102cb000200888001e0178009e019000001c2e0054
:102cc00041c6240025f807000001780001007800c3
:102cd000820278000002780002002000032824000d
:102ce00005007800840078000000be001bf8070093
:102cf000000178000100780082027800000278006c
:102d000002f02f00f377240005007800840078009b
:102d10000000be00cbf607000000e0001d003400fc
:102d2000200880000040a0000050a000200888007b
:102d30001e0178009e019000001c2e0041c6240058
:102d400006f8070000017800010078008202780090
:102d500000027800020020000338240005007800fb
:102d6000840078000000be00fcf707000001780036
:102d700001007800820178000001780003007800eb
:102d8000820078000000be00b0f60700100888003e
:102d9000400037001e0178009e019000001c2e00ac
:102da00041c62400edf7070000017800010078001b
:102db000820278000002780002002000032824002c
:102dc00005007800840078000000be00e3f70700eb
:102dd000000178000100780082017800000178008d
:102de00003007800820078000000be0097f607001c
:102df00010088800270037001e0178009e0190000f
:102e0000001c2e0041c62400d4f707000001780002
:102e100001007800820278000002780002002000a1
:102e20000310240005007800840078000000be0034
:102e3000caf70700000178000100780082017800dd
:102e40000001780003007800820078000000be00d6
:102e50007ef60700100888000e0037001e0178007b
:102e60009e019000001c2e0041c62400bbf7070005
:102e700000017800010078008201780000017800ec
:102e800003007800820078000000be006ff60700a3
:102e900010088800000000000080fa000000060012
:102ea0000000fa001fe1a9001e21a9000368a90083
:102eb0002368a8001fe1a80000002000a14724000b
:102ec00003000700000000000080fa000000060078
:102ed0000400fa00008fbe00f00880000040a1004e
:102ee0000050a100f00888001e0178009e019000ab
:102ef000001c2e0041c6240098f70700000178004e
:102f000001007800820278000002780002f02f00b1
:102f1000f377240005007800840078000000be00ec
:102f200048f607000000e0008d003400f008800043
:102f30000040a0000050a100f00888001e017800a9
:102f40009e019000001c2e0041c6240083f707005c
:102f50000001780001007800820278000002780009
:102f6000020020000310240005007800840078008f
:102f70000000be0079f7070000017800010078002a
:102f8000820278000002780002f02f00f37724001c
:102f900005007800840078000000be0029f60700d4
:102fa0000000e00055003400f00880000040a1005f
:102fb0000050a000f00888001e0178009e019000db
:102fc000001c2e0041c6240064f7070000017800b1
:102fd00001007800820278000002780002002000e0
:102fe0000328240005007800840078000000be005b
:102ff0005af707000001780001007800820278008b
:103000000002780002f02f00f3772400050078001a
:10301000840078000000be000af607000000e0000f
:103020001d003400f00880000040a0000050a00007
:10303000f00888001e0178009e019000001c2e0000
:1030400041c6240045f70700000178000100780020
:103050008202780000027800020020000338240079
:1030600005007800840078000000be003bf70700f0
:1030700000017800010078008201780000017800ea
:1030800003007800820078000000be00eff5070022
:10309000d0088800400037001e0178009e01900093
:1030a000001c2e0041c624002cf707000001780008
:1030b00001007800820278000002780002002000ff
:1030c0000328240005007800840078000000be007a
:1030d00022f70700000178000100780082017800e3
:1030e0000001780003007800820078000000be0034
:1030f000d6f50700d0088800270037001e017800a9
:103100009e019000001c2e0041c6240013f707000a
:103110000001780001007800820278000002780047
:1031200002002000031024000500780084007800cd
:103130000000be0009f707000001780001007800d8
:103140008201780000017800030078008200780096
:103150000000be00bdf50700d00888000e00370053
:103160001e0178009e019000001c2e0041c6240024
:10317000faf607000001780001007800820178006b
:103180000001780003007800820078000000be0093
:10319000aef50700d0088800000000000080fa00ab
:1031a000000006000a00fa00200798003107980086
:1031b000420798000040eb00004f78009e407800e6
:1031c000e0cfb30000c06800004f78002e009000f0
:1031d0004880de00004078009e40780000c0680013
:1031e000004f78002e009000004078009e4078004c
:1031f00000c06800004f78003e0090004880de006c
:10320000004078009e40780000c06800004f7800c1
:103210003e009000004078009e40780000c06800aa
:10322000004f78000000eb00100798000c003700fa
:103230001e009000e8004700110040001040780098
:103240009e40780000c06800004f78000e80e800c3
:103250008e80e8001108e8009000780011079800bf
:103260009e0090003e009000808f5000f0ff3500df
:103270001e4078000080fa00000006000c00fa00f2
:10328000889fbe008a1f7800300798004107980089
:10329000520798000f0478000f007800800478002f
:1032a0006800470061002000108040008000e900b5
:1032b000110798000000e8000000d10080004000e5
:1032c0000f007800818747006000400020079800c9
:1032d0002e009000e1cfb300014878003e0090003e
:1032e0004880de00804078002e0090001140980059
:1032f0003e009000804078002e0090002140980011
:103300004e0090004880de00804078002e00900043
:10331000314098004e009000804078002e009000d0
:10332000414098000000eb00000f78000a003700d1
:103330001e007800ea004700110040005100200004
:103340001e814000904078002e0090000200400056
:10335000014878001e0fe8004e0090009e007800a3
:10336000808f5000f2ff35006800470052002000b7
:10337000100541005e019000ce0090003e009000dc
:1033800088ff0700804078002e0090000a0040006f
:10339000014878006800470062002000900041006a
:1033a0002e009000530407008907780000000000f9
:1033b000880778004f0578004f04be000080fa00af
:1033c000000006000200fa00004f780060818000d3
:1033d000e30f500026003200e30f500007003c00ce
:1033e000e10f500015003200e10f500019003c00c1
:1033f0000000e0000800320048003700e50f5000f0
:1034000028003200e50f50001f003500e60f500085
:1034100035003200410037001e407800e24f400086
:1034200002003a0010002000608188002830ef0080
:103430002a30ef002630ef003b0037001e80fb00f3
:103440004800dd0030818800200020006081880075
:10345000350037001e80fb00318180000080700045
:103460003081880030002000608188002e00370005
:103470001e80fb004800dd004081880040002000e5
:1034800060818800280037001e80fb004181800099
:10349000008070004081880050002000608188001a
:1034a000210037005181800040818000808f5000d2
:1034b0001c003d00518180000100e800508188001f
:1034c00020152100010040001e4878005181800035
:1034d00040818000808f500012003a006000200080
:1034e000608188000f0037004181800030818000ba
:1034f000221521002bff07009e40780080cf50004e
:1035000004003a00418180003081800022152100b2
:10351000080007002c30ef00030037002c30ef00cc
:103520000100370000000000000000000080fa00e9
:10353000000006000600fa00000f7800110798004e
:1035400022079800000420009e007800808f500021
:1035500020003200000420009e007800808f500080
:1035600005003c00000220009e007800808f500083
:103570002e00320073003700100520009e007800f6
:10358000808f500005003200200520009e0078004a
:10359000808f5000080032006a0037001e00900043
:1035a0000000e000600034002e0090001040780021
:1035b000dd0507005c0037001e0090000000e00001
:1035c0005b0034002e00900010407800ca05070010
:1035d000570037001e009000e10f500056003400e5
:1035e000c08f80000000e00053003a002e009000e1
:1035f000104078000000fb00cf80de00cff4070011
:10360000120020000e020700640047001000e800ce
:10361000104078000000fb00cf80de00c7f40700f8
:103620000001eb0006020700430037001e00900077
:10363000e40f500042003400c08f80000000e00022
:103640003f003a002e00900010407800614060007a
:103650000080fb00610060004600dd0021748000f6
:103660000160a10001007000207488006400470020
:103670001000e80010407800614060000080fb000e
:10368000610060004500dd00217480000150a10050
:103690000100700020748800640047001080e8007a
:1036a00010407800614060000080fb006100600015
:1036b0004400dd00217480000140a1000100700081
:1036c0002074880064004700310020001080400012
:1036d00010407800614060000080fb0061006000e5
:1036e0004b00dd002174800001b0a10001007000da
:1036f00020748800640047004100200010804000d2
:1037000010407800614060000080fb0061006000b4
:103710004a00dd00a173800001a0a100010070003b
:10372000a073880006003700000000000500370085
:103730000000000003003700000000000100370017
:1037400000000000000000000080fa0000000600f9
:103750000c00fa00204f9800128180002381800025
:10376000028fbe00ae499000434798001e007800cb
:103770009e0090004808de00010020000040780014
:10378000504798001e0078009e0090004008de0020
:103790000100200000407800604798001e0078007b
:1037a0009e0090004809dd004800de000000710026
:1037b000c808de0000407800704798001e007800be
:1037c00000407800004f9800640047000001780036
:1037d0005100200000052000a8fe070000000000a6
:1037e0000080fa00000006000000fa00c301a800f3
:1037f000dca1ef00dea1ef00c1e1a80000000000a5
:103800000080fa00000006000000fa00c305a800ce
:10381000dca5ef00dea5ef00c1e5a8000000000078
:103820000080fa00000006001400fa00889fbe0025
:1038300000808000118080004080880051808800d6
:103840002080800031808000608088007180880046
:10385000300e80008000eb00008fbe00500e800014
:103860008000eb00c000dd00000020001e0f4000c3
:103870005e974800302e80008000eb002007980003
:1038800031079800502e80008000eb00c000dd0062
:103890000000200064014700e401470033194000a4
:1038a00023914800120278009202900024079800a9
:1038b000350798001e0078009e0090001ff4070056
:1038c000c2532e007378230003f60700000178002e
:1038d0000100780082017800000178000300780080
:1038e0008200780000808800118088002e009000ff
:1038f000be00900011f40700c2532e0073782b0015
:10390000f5f50700000178000100780082017800d9
:103910000001780003007800820078002080880091
:103920003180880004808000158080004080800005
:10393000518080000001be000400be0019f40700a1
:103940000001780001007800820178000001780011
:1039500003007800820078008080880091808800d1
:10396000248080003580800060808000718080002d
:103970000001be000400be000af407000001780048
:1039800001007800820178000001780003007800cf
:1039900082007800a0808800b1808800808080004c
:1039a0009180800002002000832c2400caf50700cb
:1039b000800178000101780003007800820078001f
:1039c0000000be00d08f8800e18f8800a0808000ba
:1039d000b180800002002000832c2400bef5070087
:1039e00080017800010178000300780082007800ef
:1039f0000000be00f08f880001908800d48f800006
:103a0000e58f8000f08f8000019080000001be00f3
:103a10000400be00ecf3070000017800010078000c
:103a200082027800000278000200200003002400d7
:103a300005007800840078000000be00c7f407008d
:103a4000800178000101780003007800820078008e
:103a50000000be001090880021908800d48f800064
:103a6000e58f8000f08f8000019080000001be0093
:103a70000400be00cbf307000001780001007800cd
:103a8000820278000002780022972f00f3e82300da
:103a900005007800840078000000be00aff4070045
:103aa000800178000101780003007800820078002e
:103ab0000000be0030908800419088009090800007
:103ac000a19080007090880081908800d090800044
:103ad000e1908000b0908800c190880050908000f4
:103ae00061908000f09088000191880084808000bf
:103af00095808000a0808000b18080000001be0021
:103b00000400be00a7f30700000178000100780060
:103b1000820278000002780022972f00f3e8230049
:103b200005007800840078000000be008bf40700d8
:103b3000400798005107980084808000958080009d
:103b4000a0808000b18080000001be000400be00a3
:103b50009df30700000178000100780082027800e0
:103b60000002780002002000030024000500780015
:103b7000840078000000be0078f407006007980019
:103b800071079800f290800003918000020f980066
:103b9000130f980078908000899080000200200028
:103ba000030024004e009000de0090006bf407003c
:103bb000000178000100780082027800000278009d
:103bc0000e0990009e09900005007800840078009e
:103bd0000000be007cf307000001780001007800bf
:103be00082017800000178000300780082007800ec
:103bf0000000be0048f707006e019000fe01900033
:103c000035f5070000017800010078008201780096
:103c10000001780003007800820078000001be00f7
:103c20000800be0068f307008001780001017800f9
:103c300003007800820078000000be0090908800a9
:103c4000a1908800b8908000c990800002002000f8
:103c5000030024004e009000de0090003ff40700b7
:103c600000017800010078008202780000027800ec
:103c70000e0990009e0990000500780084007800ed
:103c80000000be0050f3070000017800010078003a
:103c9000820178000001780003007800820078003b
:103ca0000000be0085f707006e019000fe01900045
:103cb00009f5070000017800010078008201780012
:103cc0000001780003007800820078000001be0047
:103cd0000800be003cf30700800178000101780075
:103ce00003007800820078000000be00d0908800b9
:103cf000e19088004e019000de0190000e089000d7
:103d00009e08900030f307008001780001017800e0
:103d100003007800820078000000be005090880008
:103d2000619088005090800061908000b2fd20007a
:103d300093042400c3f207000000e0000c003400ec
:103d40005090800061908000b2fd2000930c240010
:103d500014f3070080017800010178000300780067
:103d6000820078000000be005090880061908800ba
:103d70005090800061908000b2fd200093042c00e0
:103d8000aef207000000e000010035000c00370033
:103d90005090800061908000b2fd2000930c2400c0
:103da00009f3070080017800010178000300780022
:103db000820078000000be0050908800619088006a
:103dc000000000004f04be000080fa000000060062
:103dd0000000fa0002ccbf000000a1000010a1000a
:103de0000020a10002ecb7000096200020608800af
:103df0001061800000a0a00000b0a0001061880049
:103e000023cca80023eca80030002000206188000b
:103e10001062800000a0a00000b0a0001062880026
:103e200043cca80043eca8003000200020628800aa
:103e300001eca800000000000080fa00000006006d
:103e40000600fa00008fbe00220798002e009000a6
:103e50000000e000050032001e0178009e01900085
:103e6000e28e8800f38e8800040037001e0178007f
:103e70009e019000a28e8800b38e88000000000092
:103e80000080fa00000006000000fa00889fbe00d3
:103e9000048f8000158f8000e08e8000f18e8000fe
:103ea0000001be000400be0064f207000000e00054
:103eb00014003d00e88e8000f98e8000048f8000a1
:103ec000158f8000c0818000d18180000001be007c
:103ed0000400be00bcf20700000178000100780079
:103ee00082027800000278000801be000500780018
:103ef000840078000000be000d010700008f8800dc
:103f0000118f8800048f8000158f8000e08e800064
:103f1000f18e80000001be000400be0049f20700df
:103f20000000e00014003400e88e8000f98e80006c
:103f3000048f8000158f8000c0818000d1818000b7
:103f40000001be000400be0096f2070000017800e8
:103f50000100780082027800000278000801be00ab
:103f600005007800840078000000be00d90007003a
:103f7000008f8800118f8800008f8000118f8000d3
:103f80006011b8002ff207000000e0001e003500ad
:103f9000008f8000118f800002002000031c24008d
:103fa0004df40700000178000100780082027800db
:103fb00000027800e0818000f18180000001be00f5
:103fc00005007800840078000000be007ef2070043
:103fd000000178000100780082017800000178007b
:103fe00003007800820078000000be0038f207006d
:103ff00070628800e0818000f181800034f2070067
:10400000306288001e003700e0818000f18180006e
:104010002ff2070070628800008f8000118f8000ef
:1040200001f0a20002002000031c24002af4070073
:104030000001780001007800820278000002780018
:10404000e0818000f18180000001be000500780061
:10405000840078000000be005bf2070000017800d9
:1040600001007800820178000001780003007800e8
:10407000820078000000be0015f207003062880060
:10408000c48e8000d58e8000a08e8000b18e80000e
:104090000001be000400be00e8f107000000e000df
:1040a00014003d00a88e8000b98e8000c48e800070
:1040b000d58e8000c0818000d18180000001be00cb
:1040c0000400be0040f20700000178000100780003
:1040d00082027800000278000801be000500780026
:1040e000840078000000be0091000700c08e8800a8
:1040f000d18e8800c48e8000d58e8000a08e800076
:10410000b18e80000001be000400be00cdf10700aa
:104110000000e00014003400a88e8000b98e8000fa
:10412000c48e8000d58e8000c0818000d181800047
:104130000001be000400be001af207000001780072
:104140000100780082027800000278000801be00b9
:1041500005007800840078000000be005d000700c4
:10416000c08e8800d18e8800c08e8000d18e8000e5
:104170006011b800b3f107000000e0001e00340039
:10418000c08e8000d18e800002002000031c24001d
:10419000d1f3070000017800010078008202780066
:1041a00000027800e0818000f18180000001be0003
:1041b00005007800840078000000be0002f20700cd
:1041c0000001780001007800820178000001780089
:1041d00003007800820078000000be00bcf10700f8
:1041e00030618800e0818000f1818000b8f1070033
:1041f000706188001e003700e0818000f18180003e
:10420000b3f1070030618800c08e8000d18e80003d
:1042100001f0a20002002000031c2400aef30700fe
:104220000001780001007800820278000002780026
:10423000e0818000f18180000001be00050078006f
:10424000840078000000be00dff107000001780064
:1042500001007800820178000001780003007800f6
:10426000820078000000be0099f1070070618800ac
:10427000000000004f04be000080fa0000000600ad
:104280000400fa00008fbe006011b8001e00780024
:104290009e0090006bf107000000e0000300350075
:1042a0001e0078009e009000030037001e0078007a
:1042b0009e00900001f0a2008001780001017800ca
:1042c00003007800820078000000be000080fa0041
:1042d000000006000800fa00008fbe0022079800c8
:1042e000330798002e019000be0190001e00780058
:1042f0009e00900053f107000000e000030034002e
:104300009e0078001e00900002003700ae00900072
:104310003e009000810178000001780003007800e1
:10432000820078000000be000080fa000000060055
:104330000800fa00008fbe0022079800330798009b
:104340002e019000be0190001e0078009e0090009b
:104350003af107000000e00003003d009e007800f5
:104360001e00900002003700ae0090003e0090005a
:104370008101780000017800030078008200780055
:104380000000be000080fa00000006000c00fa00e9
:10439000008fbe002207980033079800440798005a
:1043a000550798004e019000de0190001e00780035
:1043b0009e00900023f107000000e000040034009c
:1043c0004e019000de019000028fbe000a0037000f
:1043d0002e019000be0190001e0078009e0090000b
:1043e00016f107000000e00003003d002e019000e0
:1043f000be019000028fbe009e0078001e0090005b
:1044000081017800000178000300780082007800c4
:104410000000be000080fa00000006000400fa0060
:10442000008fbe00b2fd2000930424001e0078001f
:104430009e00900049f2070000017800010078001a
:10444000820278000002780002002000433324003a
:1044500005007800840078000000be001ef307000d
:104460000001780001007800820078008101780066
:104470000001780003007800820078000000be0090
:104480000080fa00000006000400fa00008fbe0061
:10449000b2fd2000930424001e0078009e009000ce
:1044a0000df3070000017800010078008202780017
:1044b0000002780002002000433324000500780049
:1044c000840078000000be0024f20700000178009c
:1044d00001007800820078008101780000017800f6
:1044e00003007800820078000000be000080fa001f
:1044f000000006000600fa00100798002107980047
:104500000040eb00004f780058000700ae0090001c
:10451000808f500013003d000040eb00004f7800fa
:10452000080037001e80fb008e80e800110040006c
:10453000104078000e0007001e4078000040e800a0
:10454000004f78001e80fb00ae009000808f50006e
:10455000f4ff3c002f0007000004e00001003a00d7
:1045600022000700000000000080fa0000000600a2
:104570000200fa00004f7800018280000100e8008c
:104580000082880020052100010040001e487800bc
:1045900001828000f0072000808f5000010034006d
:1045a0004030ef00000000000080fa00000006002c
:1045b0000200fa00118280000100e80010828800e9
:1045c0002005210001004000104f7800118280007a
:1045d000f0072000808f5000010034004230ef00cf
:1045e0001e4078000080fa00000006000200fa0079
:1045f00010c0b30044f0b700edff0700004f780093
:104600001e80fb0020118800000000000080fa00de
:10461000000006000000fa0044d0bf000080fa004d
:10462000000006000200fa00018280001082800073
:10463000808f5000050035000182800010828000cc
:1046400000805000000f78000500370011828000c4
:10465000000820008100500000828000008f400090
:104660001e0078000080fa00000006000200fa0038
:10467000ecff0700800078000008200001005000d7
:10468000000f78001e0078000080fa00000006008d
:104690000000fa0021e3a9002143a80000198000ce
:1046a0000080a1000090a100001988002043a9000b
:1046b000001980000050a0000060a0000070a00061
:1046c000001988001019800000d0a10000e0a100ae
:1046d00000f0a100101988002343a80010198000e1
:1046e0000080a1000090a10010198800111980001d
:1046f00030f82f00008060000040a00010198800f2
:104700002203a9002223a90025e3a900f0c0b300d9
:1047100024e3b70021198000f00f2e008080600094
:1047200000f0200001007000201988003303a90068
:104730001e0ea8001f0ea8001f2ea8001f4ea800c6
:104740001f6ea8003003a8003103a8003123a80081
:104750003143a8003163a8004119800000fe2f00fa
:10476000008060004019880028e3a90001a8a90082
:1047700021a8a80021e3a800000000000080fa00a2
:10478000000006000000fa002023a800000000003e
:104790000080fa00000006000000fa00202221003c
:1047a0000080fa00000006000000fa004dd0bf00b3
:1047b0000080fa00000006000000fa004d70ef00d3
:1047c000000000000080fa00000006000000fa006f
:1047d000817420009140780000ccb30000c06000dc
:1047e0007041b30048e7b700313a800000e02f0085
:1047f000808060008005200001007000303a880051
:10480000203a80000060a1000070a100203a8800da
:10481000213a800000fe2f00008060000000a00010
:10482000203a88001200200080072000a109200003
:1048300033742000804978008149780082497800eb
:10484000103a8000000178000200a00060042000ff
:104850007105200023742000804978008149780088
:104860008249780000000000103a80004c00de0011
:1048700067406000e14f5000fbff3a005927a80055
:10488000c03a80000000a0000010a1000020a1009c
:10489000c03a88005ac7bf000000a0000010a00066
:1048a0000020a0005ae7b700c03a80000050a100e5
:1048b0000060a0000070a000c03a880059a7a800be
:1048c00059e7a80000000000c03a80004e00de005a
:1048d00061406000e14f5000fbff3a000000000023
:1048e000103a80004500de0061406000e14f50005a
:1048f000fbff3a00000000000080fa000000060004
:104900000000fa000e2eef001e2eef003e2eef00ec
:104910002e2eef004e2eef006e2eef0080cea9005f
:1049200091eea90080aea900000ea900808ea9001a
:10493000012ea900816ea900014ea900714ea900a7
:10494000706ea9000136800000f82f0080806000a2
:10495000100620000100700000368800013680003b
:10496000f00f280080806000000026000100700029
:1049700000368800e135800000f82f00808060005c
:104980006004200001007000e0358800e1358000ff
:10499000f00f2800808060000050240001007000ab
:1049a000e0358800190007002136800000f82f004c
:1049b00080806000e0042000010070002036880044
:1049c0004134800000fc2f00008060000000a00047
:1049d0004034880003000700000000000080fa0057
:1049e000000006000000fa0021742000620420008c
:1049f00073052000824878008348780042c7a800e9
:104a0000000000000080fa00000006000000fa002c
:104a10002174200062042000730520008248780081
:104a20008348780042c7a900000000000080fa0017
:104a3000000006000200fa00004f7800318280007a
:104a40000100e80030828800200d210001004000b4
:104a50001e48780031828000f0072000808f5000cf
:104a6000010034004630ef00000000000080fa0032
:104a7000000006000200fa00418280000100e80008
:104a800040828800200d210001004000104f780076
:104a900041828000f0072000808f50000100340028
:104aa0004830ef001e4078000080fa000000060049
:104ab0000000fa003182800040828000808f500028
:104ac0000200320010c0b300010037000040eb00cc
:104ad0000080fa00000006000000fa003182800029
:104ae00040828000808f50000400350031828000b9
:104af0004082800000805000050037004182800025
:104b000000082000810050003082800000804000ba
:104b10000080fa00000006000200fa00eeff070025
:104b2000800078000008200001005000000f78008d
:104b30001e0078000080fa00000006000000fa0065
:104b40002002a900001180000010a1000020a10097
:104b50000011880020a2a9002062a80010082000ef
:104b60004011880023a2a90023e2a9000188a9001e
:104b70002188a800101180000060a1000070a10031
:104b8000101188000168a9002168a90021e2a8008d
:104b90002342a800000000000080fa000000060088
:104ba0000600fa0010079800210798000040eb006b
:104bb000004f78000040eb00004f780011003700f4
:104bc00000000000101180004900de00614060001c
:104bd0000004e000fbff3a009e0090000e80e80019
:104be0000108e800100178001207980011407800d1
:104bf0000080fb00201188001e4078000040e80083
:104c0000004f78001e80fb00ae009000808f5000a7
:104c1000ebff3c00000000000080fa0000000600ee
:020000040000fa
:104c2000181000000e00000080000000d2110000eb
:104c300050000000800000004a1000000200000048
:104c40008200000001000000221200000a000000a3
:104c5000800000004c1000000200000080000000f6
:104c60003010000008000000800000004e1000001e
:104c70000200000082000000ffff0000381000006a
:104c800008000000820000000000a00040000000ba
:104c90004842000052100000800000008000000028
:104ca000401000000600000080000000d21000004c
:104cb000800000008000000046100000040000009a
:104cc0008000000052110000800000008000000001
:104cd000261000000a000000800000000010000004
:104ce00018000000800000005010000002000000ca
:084cf00080000000000000003c
:020000040000fa
:104cf8000200fa00004f78001e4078000004e0002f
:104d080002003a004a70ef000200370010c0b300fa
:104d18004af0b700000000000080fa00000006001a
:104d28000200fa00004f78004ad0bf000004e000fb
:104d380003003a001e4178000103210082487800f0
:0c4d4800000000000080fa0000000600df
:020000040000fa
:0200000401f009
:04000800cfffff0027
:020000040000fa
:0200000401f009
:04000c00f9ffff00f9
:020000040000fa
:0200000401f009
:040010005bffff0093
:020000040000fa
:0200000401f009
:040014007fffff006b
:020000040000fa
:0200000401f009
:04001800cfffff0017
:020000040000fa
:0200000401f009
:04001c00deffff0004
:020000040000fa
:0200000401f009
:04002000cfffff000f
:00000001FF
